{"contracts/DEX.sol":{"DEX":{"abi":[{"inputs":[{"internalType":"address","name":"_tokenA","type":"address"},{"internalType":"address","name":"_tokenB","type":"address"}],"stateMutability":"nonpayable","type":"constructor"},{"anonymous":false,"inputs":[{"indexed":true,"internalType":"address","name":"provider","type":"address"},{"indexed":false,"internalType":"uint256","name":"amountA","type":"uint256"},{"indexed":false,"internalType":"uint256","name":"amountB","type":"uint256"},{"indexed":false,"internalType":"uint256","name":"liquidityMinted","type":"uint256"}],"name":"LiquidityAdded","type":"event"},{"anonymous":false,"inputs":[{"indexed":true,"internalType":"address","name":"provider","type":"address"},{"indexed":false,"internalType":"uint256","name":"amountA","type":"uint256"},{"indexed":false,"internalType":"uint256","name":"amountB","type":"uint256"},{"indexed":false,"internalType":"uint256","name":"liquidityBurned","type":"uint256"}],"name":"LiquidityRemoved","type":"event"},{"anonymous":false,"inputs":[{"indexed":true,"internalType":"address","name":"trader","type":"address"},{"indexed":true,"internalType":"address","name":"tokenIn","type":"address"},{"indexed":true,"internalType":"address","name":"tokenOut","type":"address"},{"indexed":false,"internalType":"uint256","name":"amountIn","type":"uint256"},{"indexed":false,"internalType":"uint256","name":"amountOut","type":"uint256"}],"name":"Swap","type":"event"},{"inputs":[{"internalType":"uint256","name":"amountA","type":"uint256"},{"internalType":"uint256","name":"amountB","type":"uint256"}],"name":"addLiquidity","outputs":[{"internalType":"uint256","name":"liquidityMinted","type":"uint256"}],"stateMutability":"nonpayable","type":"function"},{"inputs":[{"internalType":"uint256","name":"amountAIn","type":"uint256"},{"internalType":"uint256","name":"reserveIn","type":"uint256"},{"internalType":"uint256","name":"reserveOut","type":"uint256"}],"name":"getAmountOut","outputs":[{"internalType":"uint256","name":"amountBOut","type":"uint256"}],"stateMutability":"pure","type":"function"},{"inputs":[],"name":"getPrice","outputs":[{"internalType":"uint256","name":"price","type":"uint256"}],"stateMutability":"view","type":"function"},{"inputs":[],"name":"getReserves","outputs":[{"internalType":"uint256","name":"_reserveA","type":"uint256"},{"internalType":"uint256","name":"_reserveB","type":"uint256"}],"stateMutability":"view","type":"function"},{"inputs":[{"internalType":"address","name":"","type":"address"}],"name":"liquidity","outputs":[{"internalType":"uint256","name":"","type":"uint256"}],"stateMutability":"view","type":"function"},{"inputs":[{"internalType":"uint256","name":"liquidityAmount","type":"uint256"}],"name":"removeLiquidity","outputs":[{"internalType":"uint256","name":"amountA","type":"uint256"},{"internalType":"uint256","name":"amountB","type":"uint256"}],"stateMutability":"nonpayable","type":"function"},{"inputs":[],"name":"reserveA","outputs":[{"internalType":"uint256","name":"","type":"uint256"}],"stateMutability":"view","type":"function"},{"inputs":[],"name":"reserveB","outputs":[{"internalType":"uint256","name":"","type":"uint256"}],"stateMutability":"view","type":"function"},{"inputs":[{"internalType":"uint256","name":"amountAIn","type":"uint256"}],"name":"swapAForB","outputs":[{"internalType":"uint256","name":"amountBOut","type":"uint256"}],"stateMutability":"nonpayable","type":"function"},{"inputs":[{"internalType":"uint256","name":"amountBIn","type":"uint256"}],"name":"swapBForA","outputs":[{"internalType":"uint256","name":"amountAOut","type":"uint256"}],"stateMutability":"nonpayable","type":"function"},{"inputs":[],"name":"tokenA","outputs":[{"internalType":"address","name":"","type":"address"}],"stateMutability":"view","type":"function"},{"inputs":[],"name":"tokenB","outputs":[{"internalType":"address","name":"","type":"address"}],"stateMutability":"view","type":"function"},{"inputs":[],"name":"totalLiquidity","outputs":[{"internalType":"uint256","name":"","type":"uint256"}],"stateMutability":"view","type":"function"}],"evm":{"bytecode":{"linkReferences":{},"object":"60c06040523480156200001157600080fd5b5060405162002a7738038062002a77833981810160405281019062000037919062000168565b620000536712a03b648776168060c01b620000fb60201b60201c565b6200006f67c7dfad22802d0ef160c01b620000fb60201b60201c565b8173ffffffffffffffffffffffffffffffffffffffff1660808173ffffffffffffffffffffffffffffffffffffffff1681525050620000bf67b1922fc4c4b445b160c01b620000fb60201b60201c565b8073ffffffffffffffffffffffffffffffffffffffff1660a08173ffffffffffffffffffffffffffffffffffffffff16815250505050620001af565b50565b600080fd5b600073ffffffffffffffffffffffffffffffffffffffff82169050919050565b6000620001308262000103565b9050919050565b620001428162000123565b81146200014e57600080fd5b50565b600081519050620001628162000137565b92915050565b60008060408385031215620001825762000181620000fe565b5b6000620001928582860162000151565b9250506020620001a58582860162000151565b9150509250929050565b60805160a05161284e620002296000396000818161066d0152818161073401528181610ad6015281816110e5015281816113d1015281816119770152611c490152600081816104970152818161076b01528181610aa60152818161101e0152818161130801528181611b4b0152611c12015261284e6000f3fe608060405234801561001057600080fd5b50600436106100cf5760003560e01c80635f64b55b1161008c5780639cd441da116100665780639cd441da1461021a578063b8c876b11461024a578063dc5fa6c51461027a578063e619a49814610298576100cf565b80635f64b55b146101ad57806398d5fdca146101cb5780639c8f9f23146101e9576100cf565b806303102091146100d4578063054d50d4146101045780630902f1ac146101345780630fc63d101461015357806315770f921461017157806319e36f3b1461018f575b600080fd5b6100ee60048036038101906100e99190611efa565b6102c8565b6040516100fb9190611f36565b60405180910390f35b61011e60048036038101906101199190611f51565b61081f565b60405161012b9190611f36565b60405180910390f35b61013c610a57565b60405161014a929190611fa4565b60405180910390f35b61015b610aa4565b604051610168919061200e565b60405180910390f35b610179610ac8565b6040516101869190611f36565b60405180910390f35b610197610ace565b6040516101a49190611f36565b60405180910390f35b6101b5610ad4565b6040516101c2919061200e565b60405180910390f35b6101d3610af8565b6040516101e09190611f36565b60405180910390f35b61020360048036038101906101fe9190611efa565b610bf2565b604051610211929190611fa4565b60405180910390f35b610234600480360381019061022f9190612029565b611229565b6040516102419190611f36565b60405180910390f35b610264600480360381019061025f9190612095565b61178a565b6040516102719190611f36565b60405180910390f35b6102826117a2565b60405161028f9190611f36565b60405180910390f35b6102b260048036038101906102ad9190611efa565b6117a8565b6040516102bf9190611f36565b60405180910390f35b60006102de67a1f197d92889f86160c01b611cfd565b6102f26707ea5def5b3a4f7960c01b611cfd565b61030667aad70076c195f5e160c01b611cfd565b61031a67da8771bd9241996e60c01b611cfd565b6000821161035d576040517f08c379a00000000000000000000000000000000000000000000000000000000081526004016103549061211f565b60405180910390fd5b610371676ffd78fef64a1f6960c01b611cfd565b61038567609a7a8e393c82ff60c01b611cfd565b6103996783aa11b5c109ea3760c01b611cfd565b6000805490506103b367253578a76622ba0d60c01b611cfd565b6103c767f8b7c1ec400072e560c01b611cfd565b600060015490506103e26786e4cb6b0031c3e160c01b611cfd565b6103f6675471ef3207d988b860c01b611cfd565b61040a67ecdf46c5c7cb9e2b60c01b611cfd565b60008211801561041a5750600081115b610459576040517f08c379a00000000000000000000000000000000000000000000000000000000081526004016104509061218b565b60405180910390fd5b61046d6732e11753c0fef0d960c01b611cfd565b61048167fbe8bef10071925360c01b611cfd565b610495672897463866f52f9260c01b611cfd565b7f000000000000000000000000000000000000000000000000000000000000000073ffffffffffffffffffffffffffffffffffffffff166323b872dd3330876040518463ffffffff1660e01b81526004016104f2939291906121ab565b6020604051808303816000875af1158015610511573d6000803e3d6000fd5b505050506040513d601f19601f82011682018060405250810190610535919061221a565b5061054a67d1b876c7b9ad8f7860c01b611cfd565b8360008082825461055b9190612276565b92505081905550610576678988ff66b27e1ffe60c01b611cfd565b61058184838361081f565b925061059767ab7dd7d86132446860c01b611cfd565b6105ab67cd1b9915bdda306360c01b611cfd565b6105bf677f95eb80cf75835260c01b611cfd565b60008311610602576040517f08c379a00000000000000000000000000000000000000000000000000000000081526004016105f9906122f6565b60405180910390fd5b61061667fed106ca89cd01d360c01b611cfd565b61062a671aeb314cfcf5f1e360c01b611cfd565b826001600082825461063c9190612316565b9250508190555061065767883e8d9e704bd4b460c01b611cfd565b61066b671e2ddedca7d08f6f60c01b611cfd565b7f000000000000000000000000000000000000000000000000000000000000000073ffffffffffffffffffffffffffffffffffffffff1663a9059cbb33856040518363ffffffff1660e01b81526004016106c692919061234a565b6020604051808303816000875af11580156106e5573d6000803e3d6000fd5b505050506040513d601f19601f82011682018060405250810190610709919061221a565b5061071e672df6ea001c2c673260c01b611cfd565b610732675d4c44fbc792c19460c01b611cfd565b7f000000000000000000000000000000000000000000000000000000000000000073ffffffffffffffffffffffffffffffffffffffff167f000000000000000000000000000000000000000000000000000000000000000073ffffffffffffffffffffffffffffffffffffffff163373ffffffffffffffffffffffffffffffffffffffff167fcd3829a3813dc3cdd188fd3d01dcf3268c16be2fdd2dd21d0665418816e4606287876040516107e8929190611fa4565b60405180910390a461080467540de40f9deb4b0f60c01b611cfd565b61081867b5350f6dddb6bef760c01b611cfd565b5050919050565b600061083567ae2f862056bc329c60c01b611cfd565b61084967a6c6a7b816d7c10c60c01b611cfd565b61085d676fd6ad6b50a86eb760c01b611cfd565b61087167fcf89f619565323a60c01b611cfd565b600084116108b4576040517f08c379a00000000000000000000000000000000000000000000000000000000081526004016108ab906123bf565b60405180910390fd5b6108c8672d78754a40e5d4b160c01b611cfd565b6108dc67f704b5f91dbc517a60c01b611cfd565b6108f0672e2b0302104f5d2660c01b611cfd565b61090467844b7c0562a0ad6660c01b611cfd565b6000831180156109145750600082115b610953576040517f08c379a000000000000000000000000000000000000000000000000000000000815260040161094a9061242b565b60405180910390fd5b61096767f9233b8cceec98a260c01b611cfd565b61097b67a7190270043e562260c01b611cfd565b61098f67962ae589aede901c60c01b611cfd565b60006103e86103e5866109a2919061244b565b6109ac91906124bc565b90506109c26795e11089126012cc60c01b611cfd565b6109d667668a90e8a324823b60c01b611cfd565b600083826109e4919061244b565b90506109fa67adb58cb032993f6560c01b611cfd565b610a0e671beced2b43ab1ee460c01b611cfd565b6000826103e887610a1f919061244b565b610a299190612276565b9050610a3f6785c106fb572b362160c01b611cfd565b8082610a4b91906124bc565b93505050509392505050565b600080610a6e67452d496a849c444b60c01b611cfd565b610a8267a1260debcaa4980260c01b611cfd565b610a96678927c4ee8b411a6960c01b611cfd565b600054600154915091509091565b7f000000000000000000000000000000000000000000000000000000000000000081565b60025481565b60015481565b7f000000000000000000000000000000000000000000000000000000000000000081565b6000610b0e675f57d30bfd4895d660c01b611cfd565b610b2267966f8e2110209e7860c01b611cfd565b610b366749a685362020e17160c01b611cfd565b610b4a6774d000d77446428d60c01b611cfd565b6000805411610b8e576040517f08c379a0000000000000000000000000000000000000000000000000000000008152600401610b8590612539565b60405180910390fd5b610ba267f3a4cccc5cdeeb0e60c01b611cfd565b610bb667dd7d7b4fee5e8a2460c01b611cfd565b610bca6767b1553ea830595960c01b611cfd565b600054670de0b6b3a7640000600154610be3919061244b565b610bed91906124bc565b905090565b600080610c0967450e19efc4d7686160c01b611cfd565b610c1d67b9321a3c512c60f560c01b611cfd565b610c3167efe348eb2eee6de460c01b611cfd565b610c456716322f469713450e60c01b611cfd565b82600360003373ffffffffffffffffffffffffffffffffffffffff1673ffffffffffffffffffffffffffffffffffffffff168152602001908152602001600020541015610cc7576040517f08c379a0000000000000000000000000000000000000000000000000000000008152600401610cbe906125a5565b60405180910390fd5b610cdb67e2ea5a187084f88360c01b611cfd565b610cef671065aefffecf03f160c01b611cfd565b610d036709c5e3f141a5414060c01b611cfd565b610d1767c57c62822ce8735e60c01b611cfd565b60008311610d5a576040517f08c379a0000000000000000000000000000000000000000000000000000000008152600401610d5190612611565b60405180910390fd5b610d6e6768e0dcaf2209bd3260c01b611cfd565b610d82675211de116b8ace3060c01b611cfd565b610d966736e434ec7e1080ac60c01b611cfd565b610daa67383ea8b3463c53d760c01b611cfd565b600060025411610def576040517f08c379a0000000000000000000000000000000000000000000000000000000008152600401610de69061267d565b60405180910390fd5b610e036723de50e2367edc8b60c01b611cfd565b610e17679d49e572bbf8f74060c01b611cfd565b60025460005484610e28919061244b565b610e3291906124bc565b9150610e4867c08488370c4c61d460c01b611cfd565b60025460015484610e59919061244b565b610e6391906124bc565b9050610e79674ef366d251689b0560c01b611cfd565b610e8d67e4725307c122627860c01b611cfd565b610ea1674e198db302260c7560c01b611cfd565b600082118015610eb15750600081115b610ef0576040517f08c379a0000000000000000000000000000000000000000000000000000000008152600401610ee7906126e9565b60405180910390fd5b610f0467330e18e8489c545e60c01b611cfd565b610f186762b9d595eb09f23260c01b611cfd565b82600360003373ffffffffffffffffffffffffffffffffffffffff1673ffffffffffffffffffffffffffffffffffffffff1681526020019081526020016000206000828254610f679190612316565b92505081905550610f82674a346fab76c7ac1f60c01b611cfd565b8260026000828254610f949190612316565b92505081905550610faf67520e24a6206ce8ba60c01b611cfd565b81600080828254610fc09190612316565b92505081905550610fdb67267ef47893cb107460c01b611cfd565b8060016000828254610fed9190612316565b9250508190555061100867ce7e4cbb247f5d3560c01b611cfd565b61101c6747fd82eea3e8e2bc60c01b611cfd565b7f000000000000000000000000000000000000000000000000000000000000000073ffffffffffffffffffffffffffffffffffffffff1663a9059cbb33846040518363ffffffff1660e01b815260040161107792919061234a565b6020604051808303816000875af1158015611096573d6000803e3d6000fd5b505050506040513d601f19601f820116820180604052508101906110ba919061221a565b506110cf677725df995bb2140d60c01b611cfd565b6110e367b60df91049f9d98460c01b611cfd565b7f000000000000000000000000000000000000000000000000000000000000000073ffffffffffffffffffffffffffffffffffffffff1663a9059cbb33836040518363ffffffff1660e01b815260040161113e92919061234a565b6020604051808303816000875af115801561115d573d6000803e3d6000fd5b505050506040513d601f19601f82011682018060405250810190611181919061221a565b50611196678a2fea300585ddaf60c01b611cfd565b6111aa67797680eab0d2935a60c01b611cfd565b3373ffffffffffffffffffffffffffffffffffffffff167f1dc8bb69df2b8e91fbdcbfcf93d951b3f0000f085a95fe3f7946d6161439245d8383866040516111f493929190612709565b60405180910390a26112106785fd3f9c7afcf98260c01b611cfd565b61122467504e9a73d6f1612260c01b611cfd565b915091565b600061123f673c5860fa8afe64e560c01b611cfd565b61125367f2f39dcea43164eb60c01b611cfd565b61126767655ed991e7bc5c6560c01b611cfd565b61127b674f727806d0db878160c01b611cfd565b60008311801561128b5750600082115b6112ca576040517f08c379a00000000000000000000000000000000000000000000000000000000081526004016112c19061278c565b60405180910390fd5b6112de676dee359acdee9a3360c01b611cfd565b6112f26759dd22970e3816bf60c01b611cfd565b61130667e002ff20a6a6336e60c01b611cfd565b7f000000000000000000000000000000000000000000000000000000000000000073ffffffffffffffffffffffffffffffffffffffff166323b872dd3330866040518463ffffffff1660e01b8152600401611363939291906121ab565b6020604051808303816000875af1158015611382573d6000803e3d6000fd5b505050506040513d601f19601f820116820180604052508101906113a6919061221a565b506113bb67c86edf3c6ddf587a60c01b611cfd565b6113cf67acf083b0d53037e860c01b611cfd565b7f000000000000000000000000000000000000000000000000000000000000000073ffffffffffffffffffffffffffffffffffffffff166323b872dd3330856040518463ffffffff1660e01b815260040161142c939291906121ab565b6020604051808303816000875af115801561144b573d6000803e3d6000fd5b505050506040513d601f19601f8201168201806040525081019061146f919061221a565b5061148467c01554a269413c0b60c01b611cfd565b61149867e0f7205187ac61fb60c01b611cfd565b600060025403611500576114b6671d271fdb7970990360c01b611cfd565b6114ca678207c6f3e81db7ac60c01b611cfd565b6114de82846114d9919061244b565b611d00565b90506114f467d7784d42548e065d60c01b611cfd565b8060028190555061161f565b61151467e01e96d4457fee4c60c01b611cfd565b6115286759b30038df40b59160c01b611cfd565b61153c672e1ed9802fac7e9160c01b611cfd565b600080546001548561154e919061244b565b61155891906124bc565b905061156e67f83bbd7ed903da6560c01b611cfd565b61158267fd104ab9c68e668460c01b611cfd565b61159667d967b94603ba042260c01b611cfd565b8281146115d8576040517f08c379a00000000000000000000000000000000000000000000000000000000081526004016115cf906127f8565b60405180910390fd5b6115ec67401c6d54fce7a7cf60c01b611cfd565b6116006736842e1d6a5f70be60c01b611cfd565b60005460025485611611919061244b565b61161b91906124bc565b9150505b611633678e6fafc1a487096760c01b611cfd565b80600360003373ffffffffffffffffffffffffffffffffffffffff1673ffffffffffffffffffffffffffffffffffffffff16815260200190815260200160002060008282546116829190612276565b9250508190555061169d6717d6e1c00d70a89360c01b611cfd565b826000808282546116ae9190612276565b925050819055506116c967735b99c85f381aa760c01b611cfd565b81600160008282546116db9190612276565b925050819055506116f66764aae7211ab6c09260c01b611cfd565b61170a67601e86057923728c60c01b611cfd565b3373ffffffffffffffffffffffffffffffffffffffff167f64b83944e79c3ce8d4c297411de637c3e102d064677aac0c163976ebdcd6f50e84848460405161175493929190612709565b60405180910390a2611770676f19f44f64dac67060c01b611cfd565b61178467b3b07e3689e90f9760c01b611cfd565b92915050565b60036020528060005260406000206000915090505481565b60005481565b60006117be672f8bf35e258bf1e360c01b611cfd565b6117d2676812d3aa5912318e60c01b611cfd565b6117e6670205ed9868928db060c01b611cfd565b6117fa6706cb56ce6eff387560c01b611cfd565b6000821161183d576040517f08c379a00000000000000000000000000000000000000000000000000000000081526004016118349061211f565b60405180910390fd5b61185167348fcccdf5e31bef60c01b611cfd565b611865678a5f0c37b2a3fa8f60c01b611cfd565b61187967bf9ca274f8c160d760c01b611cfd565b6000600154905061189467cb98078c699b9fd960c01b611cfd565b6118a86760c50211bf1342cd60c01b611cfd565b6000805490506118c26763c7be7e21d9ff7660c01b611cfd565b6118d667a3f6e91905fb296460c01b611cfd565b6118ea6709f93a27085099c460c01b611cfd565b6000821180156118fa5750600081115b611939576040517f08c379a00000000000000000000000000000000000000000000000000000000081526004016119309061218b565b60405180910390fd5b61194d6753e2d0e5fe1e287160c01b611cfd565b61196167b517114da1462b2560c01b611cfd565b611975671afbb9b317ee1fe660c01b611cfd565b7f000000000000000000000000000000000000000000000000000000000000000073ffffffffffffffffffffffffffffffffffffffff166323b872dd3330876040518463ffffffff1660e01b81526004016119d2939291906121ab565b6020604051808303816000875af11580156119f1573d6000803e3d6000fd5b505050506040513d601f19601f82011682018060405250810190611a15919061221a565b50611a2a675fd550124c3083fe60c01b611cfd565b8360016000828254611a3c9190612276565b92505081905550611a5666e86e4fa9e06be660c01b611cfd565b611a6184838361081f565b9250611a77674a452febc99fab6e60c01b611cfd565b611a8b6762581e5f9f445eca60c01b611cfd565b611a9e66f17dc7de4d653b60c01b611cfd565b60008311611ae1576040517f08c379a0000000000000000000000000000000000000000000000000000000008152600401611ad8906122f6565b60405180910390fd5b611af567608a9ba0d05a36a360c01b611cfd565b611b0967cf504e9267127e1960c01b611cfd565b82600080828254611b1a9190612316565b92505081905550611b3567fd00cde3cefd1f9460c01b611cfd565b611b496711a9983ed81fb39860c01b611cfd565b7f000000000000000000000000000000000000000000000000000000000000000073ffffffffffffffffffffffffffffffffffffffff1663a9059cbb33856040518363ffffffff1660e01b8152600401611ba492919061234a565b6020604051808303816000875af1158015611bc3573d6000803e3d6000fd5b505050506040513d601f19601f82011682018060405250810190611be7919061221a565b50611bfc67e012944b18ca8d0660c01b611cfd565b611c106747020d1180844a5860c01b611cfd565b7f000000000000000000000000000000000000000000000000000000000000000073ffffffffffffffffffffffffffffffffffffffff167f000000000000000000000000000000000000000000000000000000000000000073ffffffffffffffffffffffffffffffffffffffff163373ffffffffffffffffffffffffffffffffffffffff167fcd3829a3813dc3cdd188fd3d01dcf3268c16be2fdd2dd21d0665418816e460628787604051611cc6929190611fa4565b60405180910390a4611ce267a289f6d1e1ef9b1860c01b611cfd565b611cf667f72132c81f838c8560c01b611cfd565b5050919050565b50565b6000611d1667fd751de5660b754f60c01b611cfd565b611d2a67bce905d3d986821560c01b611cfd565b611d3e67b76741278ae68e7060c01b611cfd565b6003821115611e4357611d5b671f93820476d3f89f60c01b611cfd565b611d6f674793231edad212cf60c01b611cfd565b819050611d8667df48d36dc46a60cb60c01b611cfd565b611d9a67b5751d211458857960c01b611cfd565b60006001600284611dab91906124bc565b611db59190612276565b9050611dcb67f376a1034a52fb7e60c01b611cfd565b611ddf678e500d896e06961460c01b611cfd565b5b81811015611e3d57611dfc67c6e2be7ade49c94b60c01b611cfd565b809150611e13677945b785d72a1cfa60c01b611cfd565b6002818285611e2291906124bc565b611e2c9190612276565b611e3691906124bc565b9050611de0565b50611eba565b611e5767fb80f74426cd0fe460c01b611cfd565b611e6b67bd0b12833157d97160c01b611cfd565b60008214611ea457611e87675ebc1e36145d74b660c01b611cfd565b611e9b6729b934b83460bb9f60c01b611cfd565b60019050611eb9565b611eb8671bd436b9dabeb2e060c01b611cfd565b5b5b919050565b600080fd5b6000819050919050565b611ed781611ec4565b8114611ee257600080fd5b50565b600081359050611ef481611ece565b92915050565b600060208284031215611f1057611f0f611ebf565b5b6000611f1e84828501611ee5565b91505092915050565b611f3081611ec4565b82525050565b6000602082019050611f4b6000830184611f27565b92915050565b600080600060608486031215611f6a57611f69611ebf565b5b6000611f7886828701611ee5565b9350506020611f8986828701611ee5565b9250506040611f9a86828701611ee5565b9150509250925092565b6000604082019050611fb96000830185611f27565b611fc66020830184611f27565b9392505050565b600073ffffffffffffffffffffffffffffffffffffffff82169050919050565b6000611ff882611fcd565b9050919050565b61200881611fed565b82525050565b60006020820190506120236000830184611fff565b92915050565b600080604083850312156120405761203f611ebf565b5b600061204e85828601611ee5565b925050602061205f85828601611ee5565b9150509250929050565b61207281611fed565b811461207d57600080fd5b50565b60008135905061208f81612069565b92915050565b6000602082840312156120ab576120aa611ebf565b5b60006120b984828501612080565b91505092915050565b600082825260208201905092915050565b7f43616e6e6f742073776170207a65726f20616d6f756e74000000000000000000600082015250565b60006121096017836120c2565b9150612114826120d3565b602082019050919050565b60006020820190508181036000830152612138816120fc565b9050919050565b7f506f6f6c206e6f7420696e697469616c697a6564000000000000000000000000600082015250565b60006121756014836120c2565b91506121808261213f565b602082019050919050565b600060208201905081810360008301526121a481612168565b9050919050565b60006060820190506121c06000830186611fff565b6121cd6020830185611fff565b6121da6040830184611f27565b949350505050565b60008115159050919050565b6121f7816121e2565b811461220257600080fd5b50565b600081519050612214816121ee565b92915050565b6000602082840312156122305761222f611ebf565b5b600061223e84828501612205565b91505092915050565b7f4e487b7100000000000000000000000000000000000000000000000000000000600052601160045260246000fd5b600061228182611ec4565b915061228c83611ec4565b92508282019050808211156122a4576122a3612247565b5b92915050565b7f496e73756666696369656e74206f757470757420616d6f756e74000000000000600082015250565b60006122e0601a836120c2565b91506122eb826122aa565b602082019050919050565b6000602082019050818103600083015261230f816122d3565b9050919050565b600061232182611ec4565b915061232c83611ec4565b925082820390508181111561234457612343612247565b5b92915050565b600060408201905061235f6000830185611fff565b61236c6020830184611f27565b9392505050565b7f496e70757420616d6f756e74206d757374206265203e20300000000000000000600082015250565b60006123a96018836120c2565b91506123b482612373565b602082019050919050565b600060208201905081810360008301526123d88161239c565b9050919050565b7f5265736572766573206d757374206265203e2030000000000000000000000000600082015250565b60006124156014836120c2565b9150612420826123df565b602082019050919050565b6000602082019050818103600083015261244481612408565b9050919050565b600061245682611ec4565b915061246183611ec4565b925082820261246f81611ec4565b9150828204841483151761248657612485612247565b5b5092915050565b7f4e487b7100000000000000000000000000000000000000000000000000000000600052601260045260246000fd5b60006124c782611ec4565b91506124d283611ec4565b9250826124e2576124e161248d565b5b828204905092915050565b7f526573657276652041206973207a65726f000000000000000000000000000000600082015250565b60006125236011836120c2565b915061252e826124ed565b602082019050919050565b6000602082019050818103600083015261255281612516565b9050919050565b7f496e73756666696369656e74206c697175696469747900000000000000000000600082015250565b600061258f6016836120c2565b915061259a82612559565b602082019050919050565b600060208201905081810360008301526125be81612582565b9050919050565b7f43616e6e6f742072656d6f7665207a65726f206c697175696469747900000000600082015250565b60006125fb601c836120c2565b9150612606826125c5565b602082019050919050565b6000602082019050818103600083015261262a816125ee565b9050919050565b7f4e6f206c697175696469747920696e20706f6f6c000000000000000000000000600082015250565b60006126676014836120c2565b915061267282612631565b602082019050919050565b600060208201905081810360008301526126968161265a565b9050919050565b7f576974686472617720616d6f756e747320746f6f20736d616c6c000000000000600082015250565b60006126d3601a836120c2565b91506126de8261269d565b602082019050919050565b60006020820190508181036000830152612702816126c6565b9050919050565b600060608201905061271e6000830186611f27565b61272b6020830185611f27565b6127386040830184611f27565b949350505050565b7f43616e6e6f7420616464207a65726f206c697175696469747900000000000000600082015250565b60006127766019836120c2565b915061278182612740565b602082019050919050565b600060208201905081810360008301526127a581612769565b9050919050565b7f4d757374206d6174636820706f6f6c20726174696f0000000000000000000000600082015250565b60006127e26015836120c2565b91506127ed826127ac565b602082019050919050565b60006020820190508181036000830152612811816127d5565b905091905056fea2646970667358221220c77523a4c04d87da93047d60a93a710bcd6bd257d920dd49e3ffc2daded57ed264736f6c63430008130033","opcodes":"PUSH1 0xC0 PUSH1 0x40 MSTORE CALLVALUE DUP1 ISZERO PUSH3 0x11 JUMPI PUSH1 0x0 DUP1 REVERT JUMPDEST POP PUSH1 0x40 MLOAD PUSH3 0x2A77 CODESIZE SUB DUP1 PUSH3 0x2A77 DUP4 CODECOPY DUP2 DUP2 ADD PUSH1 0x40 MSTORE DUP2 ADD SWAP1 PUSH3 0x37 SWAP2 SWAP1 PUSH3 0x168 JUMP JUMPDEST PUSH3 0x53 PUSH8 0x12A03B6487761680 PUSH1 0xC0 SHL PUSH3 0xFB PUSH1 0x20 SHL PUSH1 0x20 SHR JUMP JUMPDEST PUSH3 0x6F PUSH8 0xC7DFAD22802D0EF1 PUSH1 0xC0 SHL PUSH3 0xFB PUSH1 0x20 SHL PUSH1 0x20 SHR JUMP JUMPDEST DUP2 PUSH20 0xFFFFFFFFFFFFFFFFFFFFFFFFFFFFFFFFFFFFFFFF AND PUSH1 0x80 DUP2 PUSH20 0xFFFFFFFFFFFFFFFFFFFFFFFFFFFFFFFFFFFFFFFF AND DUP2 MSTORE POP POP PUSH3 0xBF PUSH8 0xB1922FC4C4B445B1 PUSH1 0xC0 SHL PUSH3 0xFB PUSH1 0x20 SHL PUSH1 0x20 SHR JUMP JUMPDEST DUP1 PUSH20 0xFFFFFFFFFFFFFFFFFFFFFFFFFFFFFFFFFFFFFFFF AND PUSH1 0xA0 DUP2 PUSH20 0xFFFFFFFFFFFFFFFFFFFFFFFFFFFFFFFFFFFFFFFF AND DUP2 MSTORE POP POP POP POP PUSH3 0x1AF JUMP JUMPDEST POP JUMP JUMPDEST PUSH1 0x0 DUP1 REVERT JUMPDEST PUSH1 0x0 PUSH20 0xFFFFFFFFFFFFFFFFFFFFFFFFFFFFFFFFFFFFFFFF DUP3 AND SWAP1 POP SWAP2 SWAP1 POP JUMP JUMPDEST PUSH1 0x0 PUSH3 0x130 DUP3 PUSH3 0x103 JUMP JUMPDEST SWAP1 POP SWAP2 SWAP1 POP JUMP JUMPDEST PUSH3 0x142 DUP2 PUSH3 0x123 JUMP JUMPDEST DUP2 EQ PUSH3 0x14E JUMPI PUSH1 0x0 DUP1 REVERT JUMPDEST POP JUMP JUMPDEST PUSH1 0x0 DUP2 MLOAD SWAP1 POP PUSH3 0x162 DUP2 PUSH3 0x137 JUMP JUMPDEST SWAP3 SWAP2 POP POP JUMP JUMPDEST PUSH1 0x0 DUP1 PUSH1 0x40 DUP4 DUP6 SUB SLT ISZERO PUSH3 0x182 JUMPI PUSH3 0x181 PUSH3 0xFE JUMP JUMPDEST JUMPDEST PUSH1 0x0 PUSH3 0x192 DUP6 DUP3 DUP7 ADD PUSH3 0x151 JUMP JUMPDEST SWAP3 POP POP PUSH1 0x20 PUSH3 0x1A5 DUP6 DUP3 DUP7 ADD PUSH3 0x151 JUMP JUMPDEST SWAP2 POP POP SWAP3 POP SWAP3 SWAP1 POP JUMP JUMPDEST PUSH1 0x80 MLOAD PUSH1 0xA0 MLOAD PUSH2 0x284E PUSH3 0x229 PUSH1 0x0 CODECOPY PUSH1 0x0 DUP2 DUP2 PUSH2 0x66D ADD MSTORE DUP2 DUP2 PUSH2 0x734 ADD MSTORE DUP2 DUP2 PUSH2 0xAD6 ADD MSTORE DUP2 DUP2 PUSH2 0x10E5 ADD MSTORE DUP2 DUP2 PUSH2 0x13D1 ADD MSTORE DUP2 DUP2 PUSH2 0x1977 ADD MSTORE PUSH2 0x1C49 ADD MSTORE PUSH1 0x0 DUP2 DUP2 PUSH2 0x497 ADD MSTORE DUP2 DUP2 PUSH2 0x76B ADD MSTORE DUP2 DUP2 PUSH2 0xAA6 ADD MSTORE DUP2 DUP2 PUSH2 0x101E ADD MSTORE DUP2 DUP2 PUSH2 0x1308 ADD MSTORE DUP2 DUP2 PUSH2 0x1B4B ADD MSTORE PUSH2 0x1C12 ADD MSTORE PUSH2 0x284E PUSH1 0x0 RETURN INVALID PUSH1 0x80 PUSH1 0x40 MSTORE CALLVALUE DUP1 ISZERO PUSH2 0x10 JUMPI PUSH1 0x0 DUP1 REVERT JUMPDEST POP PUSH1 0x4 CALLDATASIZE LT PUSH2 0xCF JUMPI PUSH1 0x0 CALLDATALOAD PUSH1 0xE0 SHR DUP1 PUSH4 0x5F64B55B GT PUSH2 0x8C JUMPI DUP1 PUSH4 0x9CD441DA GT PUSH2 0x66 JUMPI DUP1 PUSH4 0x9CD441DA EQ PUSH2 0x21A JUMPI DUP1 PUSH4 0xB8C876B1 EQ PUSH2 0x24A JUMPI DUP1 PUSH4 0xDC5FA6C5 EQ PUSH2 0x27A JUMPI DUP1 PUSH4 0xE619A498 EQ PUSH2 0x298 JUMPI PUSH2 0xCF JUMP JUMPDEST DUP1 PUSH4 0x5F64B55B EQ PUSH2 0x1AD JUMPI DUP1 PUSH4 0x98D5FDCA EQ PUSH2 0x1CB JUMPI DUP1 PUSH4 0x9C8F9F23 EQ PUSH2 0x1E9 JUMPI PUSH2 0xCF JUMP JUMPDEST DUP1 PUSH4 0x3102091 EQ PUSH2 0xD4 JUMPI DUP1 PUSH4 0x54D50D4 EQ PUSH2 0x104 JUMPI DUP1 PUSH4 0x902F1AC EQ PUSH2 0x134 JUMPI DUP1 PUSH4 0xFC63D10 EQ PUSH2 0x153 JUMPI DUP1 PUSH4 0x15770F92 EQ PUSH2 0x171 JUMPI DUP1 PUSH4 0x19E36F3B EQ PUSH2 0x18F JUMPI JUMPDEST PUSH1 0x0 DUP1 REVERT JUMPDEST PUSH2 0xEE PUSH1 0x4 DUP1 CALLDATASIZE SUB DUP2 ADD SWAP1 PUSH2 0xE9 SWAP2 SWAP1 PUSH2 0x1EFA JUMP JUMPDEST PUSH2 0x2C8 JUMP JUMPDEST PUSH1 0x40 MLOAD PUSH2 0xFB SWAP2 SWAP1 PUSH2 0x1F36 JUMP JUMPDEST PUSH1 0x40 MLOAD DUP1 SWAP2 SUB SWAP1 RETURN JUMPDEST PUSH2 0x11E PUSH1 0x4 DUP1 CALLDATASIZE SUB DUP2 ADD SWAP1 PUSH2 0x119 SWAP2 SWAP1 PUSH2 0x1F51 JUMP JUMPDEST PUSH2 0x81F JUMP JUMPDEST PUSH1 0x40 MLOAD PUSH2 0x12B SWAP2 SWAP1 PUSH2 0x1F36 JUMP JUMPDEST PUSH1 0x40 MLOAD DUP1 SWAP2 SUB SWAP1 RETURN JUMPDEST PUSH2 0x13C PUSH2 0xA57 JUMP JUMPDEST PUSH1 0x40 MLOAD PUSH2 0x14A SWAP3 SWAP2 SWAP1 PUSH2 0x1FA4 JUMP JUMPDEST PUSH1 0x40 MLOAD DUP1 SWAP2 SUB SWAP1 RETURN JUMPDEST PUSH2 0x15B PUSH2 0xAA4 JUMP JUMPDEST PUSH1 0x40 MLOAD PUSH2 0x168 SWAP2 SWAP1 PUSH2 0x200E JUMP JUMPDEST PUSH1 0x40 MLOAD DUP1 SWAP2 SUB SWAP1 RETURN JUMPDEST PUSH2 0x179 PUSH2 0xAC8 JUMP JUMPDEST PUSH1 0x40 MLOAD PUSH2 0x186 SWAP2 SWAP1 PUSH2 0x1F36 JUMP JUMPDEST PUSH1 0x40 MLOAD DUP1 SWAP2 SUB SWAP1 RETURN JUMPDEST PUSH2 0x197 PUSH2 0xACE JUMP JUMPDEST PUSH1 0x40 MLOAD PUSH2 0x1A4 SWAP2 SWAP1 PUSH2 0x1F36 JUMP JUMPDEST PUSH1 0x40 MLOAD DUP1 SWAP2 SUB SWAP1 RETURN JUMPDEST PUSH2 0x1B5 PUSH2 0xAD4 JUMP JUMPDEST PUSH1 0x40 MLOAD PUSH2 0x1C2 SWAP2 SWAP1 PUSH2 0x200E JUMP JUMPDEST PUSH1 0x40 MLOAD DUP1 SWAP2 SUB SWAP1 RETURN JUMPDEST PUSH2 0x1D3 PUSH2 0xAF8 JUMP JUMPDEST PUSH1 0x40 MLOAD PUSH2 0x1E0 SWAP2 SWAP1 PUSH2 0x1F36 JUMP JUMPDEST PUSH1 0x40 MLOAD DUP1 SWAP2 SUB SWAP1 RETURN JUMPDEST PUSH2 0x203 PUSH1 0x4 DUP1 CALLDATASIZE SUB DUP2 ADD SWAP1 PUSH2 0x1FE SWAP2 SWAP1 PUSH2 0x1EFA JUMP JUMPDEST PUSH2 0xBF2 JUMP JUMPDEST PUSH1 0x40 MLOAD PUSH2 0x211 SWAP3 SWAP2 SWAP1 PUSH2 0x1FA4 JUMP JUMPDEST PUSH1 0x40 MLOAD DUP1 SWAP2 SUB SWAP1 RETURN JUMPDEST PUSH2 0x234 PUSH1 0x4 DUP1 CALLDATASIZE SUB DUP2 ADD SWAP1 PUSH2 0x22F SWAP2 SWAP1 PUSH2 0x2029 JUMP JUMPDEST PUSH2 0x1229 JUMP JUMPDEST PUSH1 0x40 MLOAD PUSH2 0x241 SWAP2 SWAP1 PUSH2 0x1F36 JUMP JUMPDEST PUSH1 0x40 MLOAD DUP1 SWAP2 SUB SWAP1 RETURN JUMPDEST PUSH2 0x264 PUSH1 0x4 DUP1 CALLDATASIZE SUB DUP2 ADD SWAP1 PUSH2 0x25F SWAP2 SWAP1 PUSH2 0x2095 JUMP JUMPDEST PUSH2 0x178A JUMP JUMPDEST PUSH1 0x40 MLOAD PUSH2 0x271 SWAP2 SWAP1 PUSH2 0x1F36 JUMP JUMPDEST PUSH1 0x40 MLOAD DUP1 SWAP2 SUB SWAP1 RETURN JUMPDEST PUSH2 0x282 PUSH2 0x17A2 JUMP JUMPDEST PUSH1 0x40 MLOAD PUSH2 0x28F SWAP2 SWAP1 PUSH2 0x1F36 JUMP JUMPDEST PUSH1 0x40 MLOAD DUP1 SWAP2 SUB SWAP1 RETURN JUMPDEST PUSH2 0x2B2 PUSH1 0x4 DUP1 CALLDATASIZE SUB DUP2 ADD SWAP1 PUSH2 0x2AD SWAP2 SWAP1 PUSH2 0x1EFA JUMP JUMPDEST PUSH2 0x17A8 JUMP JUMPDEST PUSH1 0x40 MLOAD PUSH2 0x2BF SWAP2 SWAP1 PUSH2 0x1F36 JUMP JUMPDEST PUSH1 0x40 MLOAD DUP1 SWAP2 SUB SWAP1 RETURN JUMPDEST PUSH1 0x0 PUSH2 0x2DE PUSH8 0xA1F197D92889F861 PUSH1 0xC0 SHL PUSH2 0x1CFD JUMP JUMPDEST PUSH2 0x2F2 PUSH8 0x7EA5DEF5B3A4F79 PUSH1 0xC0 SHL PUSH2 0x1CFD JUMP JUMPDEST PUSH2 0x306 PUSH8 0xAAD70076C195F5E1 PUSH1 0xC0 SHL PUSH2 0x1CFD JUMP JUMPDEST PUSH2 0x31A PUSH8 0xDA8771BD9241996E PUSH1 0xC0 SHL PUSH2 0x1CFD JUMP JUMPDEST PUSH1 0x0 DUP3 GT PUSH2 0x35D JUMPI PUSH1 0x40 MLOAD PUSH32 0x8C379A000000000000000000000000000000000000000000000000000000000 DUP2 MSTORE PUSH1 0x4 ADD PUSH2 0x354 SWAP1 PUSH2 0x211F JUMP JUMPDEST PUSH1 0x40 MLOAD DUP1 SWAP2 SUB SWAP1 REVERT JUMPDEST PUSH2 0x371 PUSH8 0x6FFD78FEF64A1F69 PUSH1 0xC0 SHL PUSH2 0x1CFD JUMP JUMPDEST PUSH2 0x385 PUSH8 0x609A7A8E393C82FF PUSH1 0xC0 SHL PUSH2 0x1CFD JUMP JUMPDEST PUSH2 0x399 PUSH8 0x83AA11B5C109EA37 PUSH1 0xC0 SHL PUSH2 0x1CFD JUMP JUMPDEST PUSH1 0x0 DUP1 SLOAD SWAP1 POP PUSH2 0x3B3 PUSH8 0x253578A76622BA0D PUSH1 0xC0 SHL PUSH2 0x1CFD JUMP JUMPDEST PUSH2 0x3C7 PUSH8 0xF8B7C1EC400072E5 PUSH1 0xC0 SHL PUSH2 0x1CFD JUMP JUMPDEST PUSH1 0x0 PUSH1 0x1 SLOAD SWAP1 POP PUSH2 0x3E2 PUSH8 0x86E4CB6B0031C3E1 PUSH1 0xC0 SHL PUSH2 0x1CFD JUMP JUMPDEST PUSH2 0x3F6 PUSH8 0x5471EF3207D988B8 PUSH1 0xC0 SHL PUSH2 0x1CFD JUMP JUMPDEST PUSH2 0x40A PUSH8 0xECDF46C5C7CB9E2B PUSH1 0xC0 SHL PUSH2 0x1CFD JUMP JUMPDEST PUSH1 0x0 DUP3 GT DUP1 ISZERO PUSH2 0x41A JUMPI POP PUSH1 0x0 DUP2 GT JUMPDEST PUSH2 0x459 JUMPI PUSH1 0x40 MLOAD PUSH32 0x8C379A000000000000000000000000000000000000000000000000000000000 DUP2 MSTORE PUSH1 0x4 ADD PUSH2 0x450 SWAP1 PUSH2 0x218B JUMP JUMPDEST PUSH1 0x40 MLOAD DUP1 SWAP2 SUB SWAP1 REVERT JUMPDEST PUSH2 0x46D PUSH8 0x32E11753C0FEF0D9 PUSH1 0xC0 SHL PUSH2 0x1CFD JUMP JUMPDEST PUSH2 0x481 PUSH8 0xFBE8BEF100719253 PUSH1 0xC0 SHL PUSH2 0x1CFD JUMP JUMPDEST PUSH2 0x495 PUSH8 0x2897463866F52F92 PUSH1 0xC0 SHL PUSH2 0x1CFD JUMP JUMPDEST PUSH32 0x0 PUSH20 0xFFFFFFFFFFFFFFFFFFFFFFFFFFFFFFFFFFFFFFFF AND PUSH4 0x23B872DD CALLER ADDRESS DUP8 PUSH1 0x40 MLOAD DUP5 PUSH4 0xFFFFFFFF AND PUSH1 0xE0 SHL DUP2 MSTORE PUSH1 0x4 ADD PUSH2 0x4F2 SWAP4 SWAP3 SWAP2 SWAP1 PUSH2 0x21AB JUMP JUMPDEST PUSH1 0x20 PUSH1 0x40 MLOAD DUP1 DUP4 SUB DUP2 PUSH1 0x0 DUP8 GAS CALL ISZERO DUP1 ISZERO PUSH2 0x511 JUMPI RETURNDATASIZE PUSH1 0x0 DUP1 RETURNDATACOPY RETURNDATASIZE PUSH1 0x0 REVERT JUMPDEST POP POP POP POP PUSH1 0x40 MLOAD RETURNDATASIZE PUSH1 0x1F NOT PUSH1 0x1F DUP3 ADD AND DUP3 ADD DUP1 PUSH1 0x40 MSTORE POP DUP2 ADD SWAP1 PUSH2 0x535 SWAP2 SWAP1 PUSH2 0x221A JUMP JUMPDEST POP PUSH2 0x54A PUSH8 0xD1B876C7B9AD8F78 PUSH1 0xC0 SHL PUSH2 0x1CFD JUMP JUMPDEST DUP4 PUSH1 0x0 DUP1 DUP3 DUP3 SLOAD PUSH2 0x55B SWAP2 SWAP1 PUSH2 0x2276 JUMP JUMPDEST SWAP3 POP POP DUP2 SWAP1 SSTORE POP PUSH2 0x576 PUSH8 0x8988FF66B27E1FFE PUSH1 0xC0 SHL PUSH2 0x1CFD JUMP JUMPDEST PUSH2 0x581 DUP5 DUP4 DUP4 PUSH2 0x81F JUMP JUMPDEST SWAP3 POP PUSH2 0x597 PUSH8 0xAB7DD7D861324468 PUSH1 0xC0 SHL PUSH2 0x1CFD JUMP JUMPDEST PUSH2 0x5AB PUSH8 0xCD1B9915BDDA3063 PUSH1 0xC0 SHL PUSH2 0x1CFD JUMP JUMPDEST PUSH2 0x5BF PUSH8 0x7F95EB80CF758352 PUSH1 0xC0 SHL PUSH2 0x1CFD JUMP JUMPDEST PUSH1 0x0 DUP4 GT PUSH2 0x602 JUMPI PUSH1 0x40 MLOAD PUSH32 0x8C379A000000000000000000000000000000000000000000000000000000000 DUP2 MSTORE PUSH1 0x4 ADD PUSH2 0x5F9 SWAP1 PUSH2 0x22F6 JUMP JUMPDEST PUSH1 0x40 MLOAD DUP1 SWAP2 SUB SWAP1 REVERT JUMPDEST PUSH2 0x616 PUSH8 0xFED106CA89CD01D3 PUSH1 0xC0 SHL PUSH2 0x1CFD JUMP JUMPDEST PUSH2 0x62A PUSH8 0x1AEB314CFCF5F1E3 PUSH1 0xC0 SHL PUSH2 0x1CFD JUMP JUMPDEST DUP3 PUSH1 0x1 PUSH1 0x0 DUP3 DUP3 SLOAD PUSH2 0x63C SWAP2 SWAP1 PUSH2 0x2316 JUMP JUMPDEST SWAP3 POP POP DUP2 SWAP1 SSTORE POP PUSH2 0x657 PUSH8 0x883E8D9E704BD4B4 PUSH1 0xC0 SHL PUSH2 0x1CFD JUMP JUMPDEST PUSH2 0x66B PUSH8 0x1E2DDEDCA7D08F6F PUSH1 0xC0 SHL PUSH2 0x1CFD JUMP JUMPDEST PUSH32 0x0 PUSH20 0xFFFFFFFFFFFFFFFFFFFFFFFFFFFFFFFFFFFFFFFF AND PUSH4 0xA9059CBB CALLER DUP6 PUSH1 0x40 MLOAD DUP4 PUSH4 0xFFFFFFFF AND PUSH1 0xE0 SHL DUP2 MSTORE PUSH1 0x4 ADD PUSH2 0x6C6 SWAP3 SWAP2 SWAP1 PUSH2 0x234A JUMP JUMPDEST PUSH1 0x20 PUSH1 0x40 MLOAD DUP1 DUP4 SUB DUP2 PUSH1 0x0 DUP8 GAS CALL ISZERO DUP1 ISZERO PUSH2 0x6E5 JUMPI RETURNDATASIZE PUSH1 0x0 DUP1 RETURNDATACOPY RETURNDATASIZE PUSH1 0x0 REVERT JUMPDEST POP POP POP POP PUSH1 0x40 MLOAD RETURNDATASIZE PUSH1 0x1F NOT PUSH1 0x1F DUP3 ADD AND DUP3 ADD DUP1 PUSH1 0x40 MSTORE POP DUP2 ADD SWAP1 PUSH2 0x709 SWAP2 SWAP1 PUSH2 0x221A JUMP JUMPDEST POP PUSH2 0x71E PUSH8 0x2DF6EA001C2C6732 PUSH1 0xC0 SHL PUSH2 0x1CFD JUMP JUMPDEST PUSH2 0x732 PUSH8 0x5D4C44FBC792C194 PUSH1 0xC0 SHL PUSH2 0x1CFD JUMP JUMPDEST PUSH32 0x0 PUSH20 0xFFFFFFFFFFFFFFFFFFFFFFFFFFFFFFFFFFFFFFFF AND PUSH32 0x0 PUSH20 0xFFFFFFFFFFFFFFFFFFFFFFFFFFFFFFFFFFFFFFFF AND CALLER PUSH20 0xFFFFFFFFFFFFFFFFFFFFFFFFFFFFFFFFFFFFFFFF AND PUSH32 0xCD3829A3813DC3CDD188FD3D01DCF3268C16BE2FDD2DD21D0665418816E46062 DUP8 DUP8 PUSH1 0x40 MLOAD PUSH2 0x7E8 SWAP3 SWAP2 SWAP1 PUSH2 0x1FA4 JUMP JUMPDEST PUSH1 0x40 MLOAD DUP1 SWAP2 SUB SWAP1 LOG4 PUSH2 0x804 PUSH8 0x540DE40F9DEB4B0F PUSH1 0xC0 SHL PUSH2 0x1CFD JUMP JUMPDEST PUSH2 0x818 PUSH8 0xB5350F6DDDB6BEF7 PUSH1 0xC0 SHL PUSH2 0x1CFD JUMP JUMPDEST POP POP SWAP2 SWAP1 POP JUMP JUMPDEST PUSH1 0x0 PUSH2 0x835 PUSH8 0xAE2F862056BC329C PUSH1 0xC0 SHL PUSH2 0x1CFD JUMP JUMPDEST PUSH2 0x849 PUSH8 0xA6C6A7B816D7C10C PUSH1 0xC0 SHL PUSH2 0x1CFD JUMP JUMPDEST PUSH2 0x85D PUSH8 0x6FD6AD6B50A86EB7 PUSH1 0xC0 SHL PUSH2 0x1CFD JUMP JUMPDEST PUSH2 0x871 PUSH8 0xFCF89F619565323A PUSH1 0xC0 SHL PUSH2 0x1CFD JUMP JUMPDEST PUSH1 0x0 DUP5 GT PUSH2 0x8B4 JUMPI PUSH1 0x40 MLOAD PUSH32 0x8C379A000000000000000000000000000000000000000000000000000000000 DUP2 MSTORE PUSH1 0x4 ADD PUSH2 0x8AB SWAP1 PUSH2 0x23BF JUMP JUMPDEST PUSH1 0x40 MLOAD DUP1 SWAP2 SUB SWAP1 REVERT JUMPDEST PUSH2 0x8C8 PUSH8 0x2D78754A40E5D4B1 PUSH1 0xC0 SHL PUSH2 0x1CFD JUMP JUMPDEST PUSH2 0x8DC PUSH8 0xF704B5F91DBC517A PUSH1 0xC0 SHL PUSH2 0x1CFD JUMP JUMPDEST PUSH2 0x8F0 PUSH8 0x2E2B0302104F5D26 PUSH1 0xC0 SHL PUSH2 0x1CFD JUMP JUMPDEST PUSH2 0x904 PUSH8 0x844B7C0562A0AD66 PUSH1 0xC0 SHL PUSH2 0x1CFD JUMP JUMPDEST PUSH1 0x0 DUP4 GT DUP1 ISZERO PUSH2 0x914 JUMPI POP PUSH1 0x0 DUP3 GT JUMPDEST PUSH2 0x953 JUMPI PUSH1 0x40 MLOAD PUSH32 0x8C379A000000000000000000000000000000000000000000000000000000000 DUP2 MSTORE PUSH1 0x4 ADD PUSH2 0x94A SWAP1 PUSH2 0x242B JUMP JUMPDEST PUSH1 0x40 MLOAD DUP1 SWAP2 SUB SWAP1 REVERT JUMPDEST PUSH2 0x967 PUSH8 0xF9233B8CCEEC98A2 PUSH1 0xC0 SHL PUSH2 0x1CFD JUMP JUMPDEST PUSH2 0x97B PUSH8 0xA7190270043E5622 PUSH1 0xC0 SHL PUSH2 0x1CFD JUMP JUMPDEST PUSH2 0x98F PUSH8 0x962AE589AEDE901C PUSH1 0xC0 SHL PUSH2 0x1CFD JUMP JUMPDEST PUSH1 0x0 PUSH2 0x3E8 PUSH2 0x3E5 DUP7 PUSH2 0x9A2 SWAP2 SWAP1 PUSH2 0x244B JUMP JUMPDEST PUSH2 0x9AC SWAP2 SWAP1 PUSH2 0x24BC JUMP JUMPDEST SWAP1 POP PUSH2 0x9C2 PUSH8 0x95E11089126012CC PUSH1 0xC0 SHL PUSH2 0x1CFD JUMP JUMPDEST PUSH2 0x9D6 PUSH8 0x668A90E8A324823B PUSH1 0xC0 SHL PUSH2 0x1CFD JUMP JUMPDEST PUSH1 0x0 DUP4 DUP3 PUSH2 0x9E4 SWAP2 SWAP1 PUSH2 0x244B JUMP JUMPDEST SWAP1 POP PUSH2 0x9FA PUSH8 0xADB58CB032993F65 PUSH1 0xC0 SHL PUSH2 0x1CFD JUMP JUMPDEST PUSH2 0xA0E PUSH8 0x1BECED2B43AB1EE4 PUSH1 0xC0 SHL PUSH2 0x1CFD JUMP JUMPDEST PUSH1 0x0 DUP3 PUSH2 0x3E8 DUP8 PUSH2 0xA1F SWAP2 SWAP1 PUSH2 0x244B JUMP JUMPDEST PUSH2 0xA29 SWAP2 SWAP1 PUSH2 0x2276 JUMP JUMPDEST SWAP1 POP PUSH2 0xA3F PUSH8 0x85C106FB572B3621 PUSH1 0xC0 SHL PUSH2 0x1CFD JUMP JUMPDEST DUP1 DUP3 PUSH2 0xA4B SWAP2 SWAP1 PUSH2 0x24BC JUMP JUMPDEST SWAP4 POP POP POP POP SWAP4 SWAP3 POP POP POP JUMP JUMPDEST PUSH1 0x0 DUP1 PUSH2 0xA6E PUSH8 0x452D496A849C444B PUSH1 0xC0 SHL PUSH2 0x1CFD JUMP JUMPDEST PUSH2 0xA82 PUSH8 0xA1260DEBCAA49802 PUSH1 0xC0 SHL PUSH2 0x1CFD JUMP JUMPDEST PUSH2 0xA96 PUSH8 0x8927C4EE8B411A69 PUSH1 0xC0 SHL PUSH2 0x1CFD JUMP JUMPDEST PUSH1 0x0 SLOAD PUSH1 0x1 SLOAD SWAP2 POP SWAP2 POP SWAP1 SWAP2 JUMP JUMPDEST PUSH32 0x0 DUP2 JUMP JUMPDEST PUSH1 0x2 SLOAD DUP2 JUMP JUMPDEST PUSH1 0x1 SLOAD DUP2 JUMP JUMPDEST PUSH32 0x0 DUP2 JUMP JUMPDEST PUSH1 0x0 PUSH2 0xB0E PUSH8 0x5F57D30BFD4895D6 PUSH1 0xC0 SHL PUSH2 0x1CFD JUMP JUMPDEST PUSH2 0xB22 PUSH8 0x966F8E2110209E78 PUSH1 0xC0 SHL PUSH2 0x1CFD JUMP JUMPDEST PUSH2 0xB36 PUSH8 0x49A685362020E171 PUSH1 0xC0 SHL PUSH2 0x1CFD JUMP JUMPDEST PUSH2 0xB4A PUSH8 0x74D000D77446428D PUSH1 0xC0 SHL PUSH2 0x1CFD JUMP JUMPDEST PUSH1 0x0 DUP1 SLOAD GT PUSH2 0xB8E JUMPI PUSH1 0x40 MLOAD PUSH32 0x8C379A000000000000000000000000000000000000000000000000000000000 DUP2 MSTORE PUSH1 0x4 ADD PUSH2 0xB85 SWAP1 PUSH2 0x2539 JUMP JUMPDEST PUSH1 0x40 MLOAD DUP1 SWAP2 SUB SWAP1 REVERT JUMPDEST PUSH2 0xBA2 PUSH8 0xF3A4CCCC5CDEEB0E PUSH1 0xC0 SHL PUSH2 0x1CFD JUMP JUMPDEST PUSH2 0xBB6 PUSH8 0xDD7D7B4FEE5E8A24 PUSH1 0xC0 SHL PUSH2 0x1CFD JUMP JUMPDEST PUSH2 0xBCA PUSH8 0x67B1553EA8305959 PUSH1 0xC0 SHL PUSH2 0x1CFD JUMP JUMPDEST PUSH1 0x0 SLOAD PUSH8 0xDE0B6B3A7640000 PUSH1 0x1 SLOAD PUSH2 0xBE3 SWAP2 SWAP1 PUSH2 0x244B JUMP JUMPDEST PUSH2 0xBED SWAP2 SWAP1 PUSH2 0x24BC JUMP JUMPDEST SWAP1 POP SWAP1 JUMP JUMPDEST PUSH1 0x0 DUP1 PUSH2 0xC09 PUSH8 0x450E19EFC4D76861 PUSH1 0xC0 SHL PUSH2 0x1CFD JUMP JUMPDEST PUSH2 0xC1D PUSH8 0xB9321A3C512C60F5 PUSH1 0xC0 SHL PUSH2 0x1CFD JUMP JUMPDEST PUSH2 0xC31 PUSH8 0xEFE348EB2EEE6DE4 PUSH1 0xC0 SHL PUSH2 0x1CFD JUMP JUMPDEST PUSH2 0xC45 PUSH8 0x16322F469713450E PUSH1 0xC0 SHL PUSH2 0x1CFD JUMP JUMPDEST DUP3 PUSH1 0x3 PUSH1 0x0 CALLER PUSH20 0xFFFFFFFFFFFFFFFFFFFFFFFFFFFFFFFFFFFFFFFF AND PUSH20 0xFFFFFFFFFFFFFFFFFFFFFFFFFFFFFFFFFFFFFFFF AND DUP2 MSTORE PUSH1 0x20 ADD SWAP1 DUP2 MSTORE PUSH1 0x20 ADD PUSH1 0x0 KECCAK256 SLOAD LT ISZERO PUSH2 0xCC7 JUMPI PUSH1 0x40 MLOAD PUSH32 0x8C379A000000000000000000000000000000000000000000000000000000000 DUP2 MSTORE PUSH1 0x4 ADD PUSH2 0xCBE SWAP1 PUSH2 0x25A5 JUMP JUMPDEST PUSH1 0x40 MLOAD DUP1 SWAP2 SUB SWAP1 REVERT JUMPDEST PUSH2 0xCDB PUSH8 0xE2EA5A187084F883 PUSH1 0xC0 SHL PUSH2 0x1CFD JUMP JUMPDEST PUSH2 0xCEF PUSH8 0x1065AEFFFECF03F1 PUSH1 0xC0 SHL PUSH2 0x1CFD JUMP JUMPDEST PUSH2 0xD03 PUSH8 0x9C5E3F141A54140 PUSH1 0xC0 SHL PUSH2 0x1CFD JUMP JUMPDEST PUSH2 0xD17 PUSH8 0xC57C62822CE8735E PUSH1 0xC0 SHL PUSH2 0x1CFD JUMP JUMPDEST PUSH1 0x0 DUP4 GT PUSH2 0xD5A JUMPI PUSH1 0x40 MLOAD PUSH32 0x8C379A000000000000000000000000000000000000000000000000000000000 DUP2 MSTORE PUSH1 0x4 ADD PUSH2 0xD51 SWAP1 PUSH2 0x2611 JUMP JUMPDEST PUSH1 0x40 MLOAD DUP1 SWAP2 SUB SWAP1 REVERT JUMPDEST PUSH2 0xD6E PUSH8 0x68E0DCAF2209BD32 PUSH1 0xC0 SHL PUSH2 0x1CFD JUMP JUMPDEST PUSH2 0xD82 PUSH8 0x5211DE116B8ACE30 PUSH1 0xC0 SHL PUSH2 0x1CFD JUMP JUMPDEST PUSH2 0xD96 PUSH8 0x36E434EC7E1080AC PUSH1 0xC0 SHL PUSH2 0x1CFD JUMP JUMPDEST PUSH2 0xDAA PUSH8 0x383EA8B3463C53D7 PUSH1 0xC0 SHL PUSH2 0x1CFD JUMP JUMPDEST PUSH1 0x0 PUSH1 0x2 SLOAD GT PUSH2 0xDEF JUMPI PUSH1 0x40 MLOAD PUSH32 0x8C379A000000000000000000000000000000000000000000000000000000000 DUP2 MSTORE PUSH1 0x4 ADD PUSH2 0xDE6 SWAP1 PUSH2 0x267D JUMP JUMPDEST PUSH1 0x40 MLOAD DUP1 SWAP2 SUB SWAP1 REVERT JUMPDEST PUSH2 0xE03 PUSH8 0x23DE50E2367EDC8B PUSH1 0xC0 SHL PUSH2 0x1CFD JUMP JUMPDEST PUSH2 0xE17 PUSH8 0x9D49E572BBF8F740 PUSH1 0xC0 SHL PUSH2 0x1CFD JUMP JUMPDEST PUSH1 0x2 SLOAD PUSH1 0x0 SLOAD DUP5 PUSH2 0xE28 SWAP2 SWAP1 PUSH2 0x244B JUMP JUMPDEST PUSH2 0xE32 SWAP2 SWAP1 PUSH2 0x24BC JUMP JUMPDEST SWAP2 POP PUSH2 0xE48 PUSH8 0xC08488370C4C61D4 PUSH1 0xC0 SHL PUSH2 0x1CFD JUMP JUMPDEST PUSH1 0x2 SLOAD PUSH1 0x1 SLOAD DUP5 PUSH2 0xE59 SWAP2 SWAP1 PUSH2 0x244B JUMP JUMPDEST PUSH2 0xE63 SWAP2 SWAP1 PUSH2 0x24BC JUMP JUMPDEST SWAP1 POP PUSH2 0xE79 PUSH8 0x4EF366D251689B05 PUSH1 0xC0 SHL PUSH2 0x1CFD JUMP JUMPDEST PUSH2 0xE8D PUSH8 0xE4725307C1226278 PUSH1 0xC0 SHL PUSH2 0x1CFD JUMP JUMPDEST PUSH2 0xEA1 PUSH8 0x4E198DB302260C75 PUSH1 0xC0 SHL PUSH2 0x1CFD JUMP JUMPDEST PUSH1 0x0 DUP3 GT DUP1 ISZERO PUSH2 0xEB1 JUMPI POP PUSH1 0x0 DUP2 GT JUMPDEST PUSH2 0xEF0 JUMPI PUSH1 0x40 MLOAD PUSH32 0x8C379A000000000000000000000000000000000000000000000000000000000 DUP2 MSTORE PUSH1 0x4 ADD PUSH2 0xEE7 SWAP1 PUSH2 0x26E9 JUMP JUMPDEST PUSH1 0x40 MLOAD DUP1 SWAP2 SUB SWAP1 REVERT JUMPDEST PUSH2 0xF04 PUSH8 0x330E18E8489C545E PUSH1 0xC0 SHL PUSH2 0x1CFD JUMP JUMPDEST PUSH2 0xF18 PUSH8 0x62B9D595EB09F232 PUSH1 0xC0 SHL PUSH2 0x1CFD JUMP JUMPDEST DUP3 PUSH1 0x3 PUSH1 0x0 CALLER PUSH20 0xFFFFFFFFFFFFFFFFFFFFFFFFFFFFFFFFFFFFFFFF AND PUSH20 0xFFFFFFFFFFFFFFFFFFFFFFFFFFFFFFFFFFFFFFFF AND DUP2 MSTORE PUSH1 0x20 ADD SWAP1 DUP2 MSTORE PUSH1 0x20 ADD PUSH1 0x0 KECCAK256 PUSH1 0x0 DUP3 DUP3 SLOAD PUSH2 0xF67 SWAP2 SWAP1 PUSH2 0x2316 JUMP JUMPDEST SWAP3 POP POP DUP2 SWAP1 SSTORE POP PUSH2 0xF82 PUSH8 0x4A346FAB76C7AC1F PUSH1 0xC0 SHL PUSH2 0x1CFD JUMP JUMPDEST DUP3 PUSH1 0x2 PUSH1 0x0 DUP3 DUP3 SLOAD PUSH2 0xF94 SWAP2 SWAP1 PUSH2 0x2316 JUMP JUMPDEST SWAP3 POP POP DUP2 SWAP1 SSTORE POP PUSH2 0xFAF PUSH8 0x520E24A6206CE8BA PUSH1 0xC0 SHL PUSH2 0x1CFD JUMP JUMPDEST DUP2 PUSH1 0x0 DUP1 DUP3 DUP3 SLOAD PUSH2 0xFC0 SWAP2 SWAP1 PUSH2 0x2316 JUMP JUMPDEST SWAP3 POP POP DUP2 SWAP1 SSTORE POP PUSH2 0xFDB PUSH8 0x267EF47893CB1074 PUSH1 0xC0 SHL PUSH2 0x1CFD JUMP JUMPDEST DUP1 PUSH1 0x1 PUSH1 0x0 DUP3 DUP3 SLOAD PUSH2 0xFED SWAP2 SWAP1 PUSH2 0x2316 JUMP JUMPDEST SWAP3 POP POP DUP2 SWAP1 SSTORE POP PUSH2 0x1008 PUSH8 0xCE7E4CBB247F5D35 PUSH1 0xC0 SHL PUSH2 0x1CFD JUMP JUMPDEST PUSH2 0x101C PUSH8 0x47FD82EEA3E8E2BC PUSH1 0xC0 SHL PUSH2 0x1CFD JUMP JUMPDEST PUSH32 0x0 PUSH20 0xFFFFFFFFFFFFFFFFFFFFFFFFFFFFFFFFFFFFFFFF AND PUSH4 0xA9059CBB CALLER DUP5 PUSH1 0x40 MLOAD DUP4 PUSH4 0xFFFFFFFF AND PUSH1 0xE0 SHL DUP2 MSTORE PUSH1 0x4 ADD PUSH2 0x1077 SWAP3 SWAP2 SWAP1 PUSH2 0x234A JUMP JUMPDEST PUSH1 0x20 PUSH1 0x40 MLOAD DUP1 DUP4 SUB DUP2 PUSH1 0x0 DUP8 GAS CALL ISZERO DUP1 ISZERO PUSH2 0x1096 JUMPI RETURNDATASIZE PUSH1 0x0 DUP1 RETURNDATACOPY RETURNDATASIZE PUSH1 0x0 REVERT JUMPDEST POP POP POP POP PUSH1 0x40 MLOAD RETURNDATASIZE PUSH1 0x1F NOT PUSH1 0x1F DUP3 ADD AND DUP3 ADD DUP1 PUSH1 0x40 MSTORE POP DUP2 ADD SWAP1 PUSH2 0x10BA SWAP2 SWAP1 PUSH2 0x221A JUMP JUMPDEST POP PUSH2 0x10CF PUSH8 0x7725DF995BB2140D PUSH1 0xC0 SHL PUSH2 0x1CFD JUMP JUMPDEST PUSH2 0x10E3 PUSH8 0xB60DF91049F9D984 PUSH1 0xC0 SHL PUSH2 0x1CFD JUMP JUMPDEST PUSH32 0x0 PUSH20 0xFFFFFFFFFFFFFFFFFFFFFFFFFFFFFFFFFFFFFFFF AND PUSH4 0xA9059CBB CALLER DUP4 PUSH1 0x40 MLOAD DUP4 PUSH4 0xFFFFFFFF AND PUSH1 0xE0 SHL DUP2 MSTORE PUSH1 0x4 ADD PUSH2 0x113E SWAP3 SWAP2 SWAP1 PUSH2 0x234A JUMP JUMPDEST PUSH1 0x20 PUSH1 0x40 MLOAD DUP1 DUP4 SUB DUP2 PUSH1 0x0 DUP8 GAS CALL ISZERO DUP1 ISZERO PUSH2 0x115D JUMPI RETURNDATASIZE PUSH1 0x0 DUP1 RETURNDATACOPY RETURNDATASIZE PUSH1 0x0 REVERT JUMPDEST POP POP POP POP PUSH1 0x40 MLOAD RETURNDATASIZE PUSH1 0x1F NOT PUSH1 0x1F DUP3 ADD AND DUP3 ADD DUP1 PUSH1 0x40 MSTORE POP DUP2 ADD SWAP1 PUSH2 0x1181 SWAP2 SWAP1 PUSH2 0x221A JUMP JUMPDEST POP PUSH2 0x1196 PUSH8 0x8A2FEA300585DDAF PUSH1 0xC0 SHL PUSH2 0x1CFD JUMP JUMPDEST PUSH2 0x11AA PUSH8 0x797680EAB0D2935A PUSH1 0xC0 SHL PUSH2 0x1CFD JUMP JUMPDEST CALLER PUSH20 0xFFFFFFFFFFFFFFFFFFFFFFFFFFFFFFFFFFFFFFFF AND PUSH32 0x1DC8BB69DF2B8E91FBDCBFCF93D951B3F0000F085A95FE3F7946D6161439245D DUP4 DUP4 DUP7 PUSH1 0x40 MLOAD PUSH2 0x11F4 SWAP4 SWAP3 SWAP2 SWAP1 PUSH2 0x2709 JUMP JUMPDEST PUSH1 0x40 MLOAD DUP1 SWAP2 SUB SWAP1 LOG2 PUSH2 0x1210 PUSH8 0x85FD3F9C7AFCF982 PUSH1 0xC0 SHL PUSH2 0x1CFD JUMP JUMPDEST PUSH2 0x1224 PUSH8 0x504E9A73D6F16122 PUSH1 0xC0 SHL PUSH2 0x1CFD JUMP JUMPDEST SWAP2 POP SWAP2 JUMP JUMPDEST PUSH1 0x0 PUSH2 0x123F PUSH8 0x3C5860FA8AFE64E5 PUSH1 0xC0 SHL PUSH2 0x1CFD JUMP JUMPDEST PUSH2 0x1253 PUSH8 0xF2F39DCEA43164EB PUSH1 0xC0 SHL PUSH2 0x1CFD JUMP JUMPDEST PUSH2 0x1267 PUSH8 0x655ED991E7BC5C65 PUSH1 0xC0 SHL PUSH2 0x1CFD JUMP JUMPDEST PUSH2 0x127B PUSH8 0x4F727806D0DB8781 PUSH1 0xC0 SHL PUSH2 0x1CFD JUMP JUMPDEST PUSH1 0x0 DUP4 GT DUP1 ISZERO PUSH2 0x128B JUMPI POP PUSH1 0x0 DUP3 GT JUMPDEST PUSH2 0x12CA JUMPI PUSH1 0x40 MLOAD PUSH32 0x8C379A000000000000000000000000000000000000000000000000000000000 DUP2 MSTORE PUSH1 0x4 ADD PUSH2 0x12C1 SWAP1 PUSH2 0x278C JUMP JUMPDEST PUSH1 0x40 MLOAD DUP1 SWAP2 SUB SWAP1 REVERT JUMPDEST PUSH2 0x12DE PUSH8 0x6DEE359ACDEE9A33 PUSH1 0xC0 SHL PUSH2 0x1CFD JUMP JUMPDEST PUSH2 0x12F2 PUSH8 0x59DD22970E3816BF PUSH1 0xC0 SHL PUSH2 0x1CFD JUMP JUMPDEST PUSH2 0x1306 PUSH8 0xE002FF20A6A6336E PUSH1 0xC0 SHL PUSH2 0x1CFD JUMP JUMPDEST PUSH32 0x0 PUSH20 0xFFFFFFFFFFFFFFFFFFFFFFFFFFFFFFFFFFFFFFFF AND PUSH4 0x23B872DD CALLER ADDRESS DUP7 PUSH1 0x40 MLOAD DUP5 PUSH4 0xFFFFFFFF AND PUSH1 0xE0 SHL DUP2 MSTORE PUSH1 0x4 ADD PUSH2 0x1363 SWAP4 SWAP3 SWAP2 SWAP1 PUSH2 0x21AB JUMP JUMPDEST PUSH1 0x20 PUSH1 0x40 MLOAD DUP1 DUP4 SUB DUP2 PUSH1 0x0 DUP8 GAS CALL ISZERO DUP1 ISZERO PUSH2 0x1382 JUMPI RETURNDATASIZE PUSH1 0x0 DUP1 RETURNDATACOPY RETURNDATASIZE PUSH1 0x0 REVERT JUMPDEST POP POP POP POP PUSH1 0x40 MLOAD RETURNDATASIZE PUSH1 0x1F NOT PUSH1 0x1F DUP3 ADD AND DUP3 ADD DUP1 PUSH1 0x40 MSTORE POP DUP2 ADD SWAP1 PUSH2 0x13A6 SWAP2 SWAP1 PUSH2 0x221A JUMP JUMPDEST POP PUSH2 0x13BB PUSH8 0xC86EDF3C6DDF587A PUSH1 0xC0 SHL PUSH2 0x1CFD JUMP JUMPDEST PUSH2 0x13CF PUSH8 0xACF083B0D53037E8 PUSH1 0xC0 SHL PUSH2 0x1CFD JUMP JUMPDEST PUSH32 0x0 PUSH20 0xFFFFFFFFFFFFFFFFFFFFFFFFFFFFFFFFFFFFFFFF AND PUSH4 0x23B872DD CALLER ADDRESS DUP6 PUSH1 0x40 MLOAD DUP5 PUSH4 0xFFFFFFFF AND PUSH1 0xE0 SHL DUP2 MSTORE PUSH1 0x4 ADD PUSH2 0x142C SWAP4 SWAP3 SWAP2 SWAP1 PUSH2 0x21AB JUMP JUMPDEST PUSH1 0x20 PUSH1 0x40 MLOAD DUP1 DUP4 SUB DUP2 PUSH1 0x0 DUP8 GAS CALL ISZERO DUP1 ISZERO PUSH2 0x144B JUMPI RETURNDATASIZE PUSH1 0x0 DUP1 RETURNDATACOPY RETURNDATASIZE PUSH1 0x0 REVERT JUMPDEST POP POP POP POP PUSH1 0x40 MLOAD RETURNDATASIZE PUSH1 0x1F NOT PUSH1 0x1F DUP3 ADD AND DUP3 ADD DUP1 PUSH1 0x40 MSTORE POP DUP2 ADD SWAP1 PUSH2 0x146F SWAP2 SWAP1 PUSH2 0x221A JUMP JUMPDEST POP PUSH2 0x1484 PUSH8 0xC01554A269413C0B PUSH1 0xC0 SHL PUSH2 0x1CFD JUMP JUMPDEST PUSH2 0x1498 PUSH8 0xE0F7205187AC61FB PUSH1 0xC0 SHL PUSH2 0x1CFD JUMP JUMPDEST PUSH1 0x0 PUSH1 0x2 SLOAD SUB PUSH2 0x1500 JUMPI PUSH2 0x14B6 PUSH8 0x1D271FDB79709903 PUSH1 0xC0 SHL PUSH2 0x1CFD JUMP JUMPDEST PUSH2 0x14CA PUSH8 0x8207C6F3E81DB7AC PUSH1 0xC0 SHL PUSH2 0x1CFD JUMP JUMPDEST PUSH2 0x14DE DUP3 DUP5 PUSH2 0x14D9 SWAP2 SWAP1 PUSH2 0x244B JUMP JUMPDEST PUSH2 0x1D00 JUMP JUMPDEST SWAP1 POP PUSH2 0x14F4 PUSH8 0xD7784D42548E065D PUSH1 0xC0 SHL PUSH2 0x1CFD JUMP JUMPDEST DUP1 PUSH1 0x2 DUP2 SWAP1 SSTORE POP PUSH2 0x161F JUMP JUMPDEST PUSH2 0x1514 PUSH8 0xE01E96D4457FEE4C PUSH1 0xC0 SHL PUSH2 0x1CFD JUMP JUMPDEST PUSH2 0x1528 PUSH8 0x59B30038DF40B591 PUSH1 0xC0 SHL PUSH2 0x1CFD JUMP JUMPDEST PUSH2 0x153C PUSH8 0x2E1ED9802FAC7E91 PUSH1 0xC0 SHL PUSH2 0x1CFD JUMP JUMPDEST PUSH1 0x0 DUP1 SLOAD PUSH1 0x1 SLOAD DUP6 PUSH2 0x154E SWAP2 SWAP1 PUSH2 0x244B JUMP JUMPDEST PUSH2 0x1558 SWAP2 SWAP1 PUSH2 0x24BC JUMP JUMPDEST SWAP1 POP PUSH2 0x156E PUSH8 0xF83BBD7ED903DA65 PUSH1 0xC0 SHL PUSH2 0x1CFD JUMP JUMPDEST PUSH2 0x1582 PUSH8 0xFD104AB9C68E6684 PUSH1 0xC0 SHL PUSH2 0x1CFD JUMP JUMPDEST PUSH2 0x1596 PUSH8 0xD967B94603BA0422 PUSH1 0xC0 SHL PUSH2 0x1CFD JUMP JUMPDEST DUP3 DUP2 EQ PUSH2 0x15D8 JUMPI PUSH1 0x40 MLOAD PUSH32 0x8C379A000000000000000000000000000000000000000000000000000000000 DUP2 MSTORE PUSH1 0x4 ADD PUSH2 0x15CF SWAP1 PUSH2 0x27F8 JUMP JUMPDEST PUSH1 0x40 MLOAD DUP1 SWAP2 SUB SWAP1 REVERT JUMPDEST PUSH2 0x15EC PUSH8 0x401C6D54FCE7A7CF PUSH1 0xC0 SHL PUSH2 0x1CFD JUMP JUMPDEST PUSH2 0x1600 PUSH8 0x36842E1D6A5F70BE PUSH1 0xC0 SHL PUSH2 0x1CFD JUMP JUMPDEST PUSH1 0x0 SLOAD PUSH1 0x2 SLOAD DUP6 PUSH2 0x1611 SWAP2 SWAP1 PUSH2 0x244B JUMP JUMPDEST PUSH2 0x161B SWAP2 SWAP1 PUSH2 0x24BC JUMP JUMPDEST SWAP2 POP POP JUMPDEST PUSH2 0x1633 PUSH8 0x8E6FAFC1A4870967 PUSH1 0xC0 SHL PUSH2 0x1CFD JUMP JUMPDEST DUP1 PUSH1 0x3 PUSH1 0x0 CALLER PUSH20 0xFFFFFFFFFFFFFFFFFFFFFFFFFFFFFFFFFFFFFFFF AND PUSH20 0xFFFFFFFFFFFFFFFFFFFFFFFFFFFFFFFFFFFFFFFF AND DUP2 MSTORE PUSH1 0x20 ADD SWAP1 DUP2 MSTORE PUSH1 0x20 ADD PUSH1 0x0 KECCAK256 PUSH1 0x0 DUP3 DUP3 SLOAD PUSH2 0x1682 SWAP2 SWAP1 PUSH2 0x2276 JUMP JUMPDEST SWAP3 POP POP DUP2 SWAP1 SSTORE POP PUSH2 0x169D PUSH8 0x17D6E1C00D70A893 PUSH1 0xC0 SHL PUSH2 0x1CFD JUMP JUMPDEST DUP3 PUSH1 0x0 DUP1 DUP3 DUP3 SLOAD PUSH2 0x16AE SWAP2 SWAP1 PUSH2 0x2276 JUMP JUMPDEST SWAP3 POP POP DUP2 SWAP1 SSTORE POP PUSH2 0x16C9 PUSH8 0x735B99C85F381AA7 PUSH1 0xC0 SHL PUSH2 0x1CFD JUMP JUMPDEST DUP2 PUSH1 0x1 PUSH1 0x0 DUP3 DUP3 SLOAD PUSH2 0x16DB SWAP2 SWAP1 PUSH2 0x2276 JUMP JUMPDEST SWAP3 POP POP DUP2 SWAP1 SSTORE POP PUSH2 0x16F6 PUSH8 0x64AAE7211AB6C092 PUSH1 0xC0 SHL PUSH2 0x1CFD JUMP JUMPDEST PUSH2 0x170A PUSH8 0x601E86057923728C PUSH1 0xC0 SHL PUSH2 0x1CFD JUMP JUMPDEST CALLER PUSH20 0xFFFFFFFFFFFFFFFFFFFFFFFFFFFFFFFFFFFFFFFF AND PUSH32 0x64B83944E79C3CE8D4C297411DE637C3E102D064677AAC0C163976EBDCD6F50E DUP5 DUP5 DUP5 PUSH1 0x40 MLOAD PUSH2 0x1754 SWAP4 SWAP3 SWAP2 SWAP1 PUSH2 0x2709 JUMP JUMPDEST PUSH1 0x40 MLOAD DUP1 SWAP2 SUB SWAP1 LOG2 PUSH2 0x1770 PUSH8 0x6F19F44F64DAC670 PUSH1 0xC0 SHL PUSH2 0x1CFD JUMP JUMPDEST PUSH2 0x1784 PUSH8 0xB3B07E3689E90F97 PUSH1 0xC0 SHL PUSH2 0x1CFD JUMP JUMPDEST SWAP3 SWAP2 POP POP JUMP JUMPDEST PUSH1 0x3 PUSH1 0x20 MSTORE DUP1 PUSH1 0x0 MSTORE PUSH1 0x40 PUSH1 0x0 KECCAK256 PUSH1 0x0 SWAP2 POP SWAP1 POP SLOAD DUP2 JUMP JUMPDEST PUSH1 0x0 SLOAD DUP2 JUMP JUMPDEST PUSH1 0x0 PUSH2 0x17BE PUSH8 0x2F8BF35E258BF1E3 PUSH1 0xC0 SHL PUSH2 0x1CFD JUMP JUMPDEST PUSH2 0x17D2 PUSH8 0x6812D3AA5912318E PUSH1 0xC0 SHL PUSH2 0x1CFD JUMP JUMPDEST PUSH2 0x17E6 PUSH8 0x205ED9868928DB0 PUSH1 0xC0 SHL PUSH2 0x1CFD JUMP JUMPDEST PUSH2 0x17FA PUSH8 0x6CB56CE6EFF3875 PUSH1 0xC0 SHL PUSH2 0x1CFD JUMP JUMPDEST PUSH1 0x0 DUP3 GT PUSH2 0x183D JUMPI PUSH1 0x40 MLOAD PUSH32 0x8C379A000000000000000000000000000000000000000000000000000000000 DUP2 MSTORE PUSH1 0x4 ADD PUSH2 0x1834 SWAP1 PUSH2 0x211F JUMP JUMPDEST PUSH1 0x40 MLOAD DUP1 SWAP2 SUB SWAP1 REVERT JUMPDEST PUSH2 0x1851 PUSH8 0x348FCCCDF5E31BEF PUSH1 0xC0 SHL PUSH2 0x1CFD JUMP JUMPDEST PUSH2 0x1865 PUSH8 0x8A5F0C37B2A3FA8F PUSH1 0xC0 SHL PUSH2 0x1CFD JUMP JUMPDEST PUSH2 0x1879 PUSH8 0xBF9CA274F8C160D7 PUSH1 0xC0 SHL PUSH2 0x1CFD JUMP JUMPDEST PUSH1 0x0 PUSH1 0x1 SLOAD SWAP1 POP PUSH2 0x1894 PUSH8 0xCB98078C699B9FD9 PUSH1 0xC0 SHL PUSH2 0x1CFD JUMP JUMPDEST PUSH2 0x18A8 PUSH8 0x60C50211BF1342CD PUSH1 0xC0 SHL PUSH2 0x1CFD JUMP JUMPDEST PUSH1 0x0 DUP1 SLOAD SWAP1 POP PUSH2 0x18C2 PUSH8 0x63C7BE7E21D9FF76 PUSH1 0xC0 SHL PUSH2 0x1CFD JUMP JUMPDEST PUSH2 0x18D6 PUSH8 0xA3F6E91905FB2964 PUSH1 0xC0 SHL PUSH2 0x1CFD JUMP JUMPDEST PUSH2 0x18EA PUSH8 0x9F93A27085099C4 PUSH1 0xC0 SHL PUSH2 0x1CFD JUMP JUMPDEST PUSH1 0x0 DUP3 GT DUP1 ISZERO PUSH2 0x18FA JUMPI POP PUSH1 0x0 DUP2 GT JUMPDEST PUSH2 0x1939 JUMPI PUSH1 0x40 MLOAD PUSH32 0x8C379A000000000000000000000000000000000000000000000000000000000 DUP2 MSTORE PUSH1 0x4 ADD PUSH2 0x1930 SWAP1 PUSH2 0x218B JUMP JUMPDEST PUSH1 0x40 MLOAD DUP1 SWAP2 SUB SWAP1 REVERT JUMPDEST PUSH2 0x194D PUSH8 0x53E2D0E5FE1E2871 PUSH1 0xC0 SHL PUSH2 0x1CFD JUMP JUMPDEST PUSH2 0x1961 PUSH8 0xB517114DA1462B25 PUSH1 0xC0 SHL PUSH2 0x1CFD JUMP JUMPDEST PUSH2 0x1975 PUSH8 0x1AFBB9B317EE1FE6 PUSH1 0xC0 SHL PUSH2 0x1CFD JUMP JUMPDEST PUSH32 0x0 PUSH20 0xFFFFFFFFFFFFFFFFFFFFFFFFFFFFFFFFFFFFFFFF AND PUSH4 0x23B872DD CALLER ADDRESS DUP8 PUSH1 0x40 MLOAD DUP5 PUSH4 0xFFFFFFFF AND PUSH1 0xE0 SHL DUP2 MSTORE PUSH1 0x4 ADD PUSH2 0x19D2 SWAP4 SWAP3 SWAP2 SWAP1 PUSH2 0x21AB JUMP JUMPDEST PUSH1 0x20 PUSH1 0x40 MLOAD DUP1 DUP4 SUB DUP2 PUSH1 0x0 DUP8 GAS CALL ISZERO DUP1 ISZERO PUSH2 0x19F1 JUMPI RETURNDATASIZE PUSH1 0x0 DUP1 RETURNDATACOPY RETURNDATASIZE PUSH1 0x0 REVERT JUMPDEST POP POP POP POP PUSH1 0x40 MLOAD RETURNDATASIZE PUSH1 0x1F NOT PUSH1 0x1F DUP3 ADD AND DUP3 ADD DUP1 PUSH1 0x40 MSTORE POP DUP2 ADD SWAP1 PUSH2 0x1A15 SWAP2 SWAP1 PUSH2 0x221A JUMP JUMPDEST POP PUSH2 0x1A2A PUSH8 0x5FD550124C3083FE PUSH1 0xC0 SHL PUSH2 0x1CFD JUMP JUMPDEST DUP4 PUSH1 0x1 PUSH1 0x0 DUP3 DUP3 SLOAD PUSH2 0x1A3C SWAP2 SWAP1 PUSH2 0x2276 JUMP JUMPDEST SWAP3 POP POP DUP2 SWAP1 SSTORE POP PUSH2 0x1A56 PUSH7 0xE86E4FA9E06BE6 PUSH1 0xC0 SHL PUSH2 0x1CFD JUMP JUMPDEST PUSH2 0x1A61 DUP5 DUP4 DUP4 PUSH2 0x81F JUMP JUMPDEST SWAP3 POP PUSH2 0x1A77 PUSH8 0x4A452FEBC99FAB6E PUSH1 0xC0 SHL PUSH2 0x1CFD JUMP JUMPDEST PUSH2 0x1A8B PUSH8 0x62581E5F9F445ECA PUSH1 0xC0 SHL PUSH2 0x1CFD JUMP JUMPDEST PUSH2 0x1A9E PUSH7 0xF17DC7DE4D653B PUSH1 0xC0 SHL PUSH2 0x1CFD JUMP JUMPDEST PUSH1 0x0 DUP4 GT PUSH2 0x1AE1 JUMPI PUSH1 0x40 MLOAD PUSH32 0x8C379A000000000000000000000000000000000000000000000000000000000 DUP2 MSTORE PUSH1 0x4 ADD PUSH2 0x1AD8 SWAP1 PUSH2 0x22F6 JUMP JUMPDEST PUSH1 0x40 MLOAD DUP1 SWAP2 SUB SWAP1 REVERT JUMPDEST PUSH2 0x1AF5 PUSH8 0x608A9BA0D05A36A3 PUSH1 0xC0 SHL PUSH2 0x1CFD JUMP JUMPDEST PUSH2 0x1B09 PUSH8 0xCF504E9267127E19 PUSH1 0xC0 SHL PUSH2 0x1CFD JUMP JUMPDEST DUP3 PUSH1 0x0 DUP1 DUP3 DUP3 SLOAD PUSH2 0x1B1A SWAP2 SWAP1 PUSH2 0x2316 JUMP JUMPDEST SWAP3 POP POP DUP2 SWAP1 SSTORE POP PUSH2 0x1B35 PUSH8 0xFD00CDE3CEFD1F94 PUSH1 0xC0 SHL PUSH2 0x1CFD JUMP JUMPDEST PUSH2 0x1B49 PUSH8 0x11A9983ED81FB398 PUSH1 0xC0 SHL PUSH2 0x1CFD JUMP JUMPDEST PUSH32 0x0 PUSH20 0xFFFFFFFFFFFFFFFFFFFFFFFFFFFFFFFFFFFFFFFF AND PUSH4 0xA9059CBB CALLER DUP6 PUSH1 0x40 MLOAD DUP4 PUSH4 0xFFFFFFFF AND PUSH1 0xE0 SHL DUP2 MSTORE PUSH1 0x4 ADD PUSH2 0x1BA4 SWAP3 SWAP2 SWAP1 PUSH2 0x234A JUMP JUMPDEST PUSH1 0x20 PUSH1 0x40 MLOAD DUP1 DUP4 SUB DUP2 PUSH1 0x0 DUP8 GAS CALL ISZERO DUP1 ISZERO PUSH2 0x1BC3 JUMPI RETURNDATASIZE PUSH1 0x0 DUP1 RETURNDATACOPY RETURNDATASIZE PUSH1 0x0 REVERT JUMPDEST POP POP POP POP PUSH1 0x40 MLOAD RETURNDATASIZE PUSH1 0x1F NOT PUSH1 0x1F DUP3 ADD AND DUP3 ADD DUP1 PUSH1 0x40 MSTORE POP DUP2 ADD SWAP1 PUSH2 0x1BE7 SWAP2 SWAP1 PUSH2 0x221A JUMP JUMPDEST POP PUSH2 0x1BFC PUSH8 0xE012944B18CA8D06 PUSH1 0xC0 SHL PUSH2 0x1CFD JUMP JUMPDEST PUSH2 0x1C10 PUSH8 0x47020D1180844A58 PUSH1 0xC0 SHL PUSH2 0x1CFD JUMP JUMPDEST PUSH32 0x0 PUSH20 0xFFFFFFFFFFFFFFFFFFFFFFFFFFFFFFFFFFFFFFFF AND PUSH32 0x0 PUSH20 0xFFFFFFFFFFFFFFFFFFFFFFFFFFFFFFFFFFFFFFFF AND CALLER PUSH20 0xFFFFFFFFFFFFFFFFFFFFFFFFFFFFFFFFFFFFFFFF AND PUSH32 0xCD3829A3813DC3CDD188FD3D01DCF3268C16BE2FDD2DD21D0665418816E46062 DUP8 DUP8 PUSH1 0x40 MLOAD PUSH2 0x1CC6 SWAP3 SWAP2 SWAP1 PUSH2 0x1FA4 JUMP JUMPDEST PUSH1 0x40 MLOAD DUP1 SWAP2 SUB SWAP1 LOG4 PUSH2 0x1CE2 PUSH8 0xA289F6D1E1EF9B18 PUSH1 0xC0 SHL PUSH2 0x1CFD JUMP JUMPDEST PUSH2 0x1CF6 PUSH8 0xF72132C81F838C85 PUSH1 0xC0 SHL PUSH2 0x1CFD JUMP JUMPDEST POP POP SWAP2 SWAP1 POP JUMP JUMPDEST POP JUMP JUMPDEST PUSH1 0x0 PUSH2 0x1D16 PUSH8 0xFD751DE5660B754F PUSH1 0xC0 SHL PUSH2 0x1CFD JUMP JUMPDEST PUSH2 0x1D2A PUSH8 0xBCE905D3D9868215 PUSH1 0xC0 SHL PUSH2 0x1CFD JUMP JUMPDEST PUSH2 0x1D3E PUSH8 0xB76741278AE68E70 PUSH1 0xC0 SHL PUSH2 0x1CFD JUMP JUMPDEST PUSH1 0x3 DUP3 GT ISZERO PUSH2 0x1E43 JUMPI PUSH2 0x1D5B PUSH8 0x1F93820476D3F89F PUSH1 0xC0 SHL PUSH2 0x1CFD JUMP JUMPDEST PUSH2 0x1D6F PUSH8 0x4793231EDAD212CF PUSH1 0xC0 SHL PUSH2 0x1CFD JUMP JUMPDEST DUP2 SWAP1 POP PUSH2 0x1D86 PUSH8 0xDF48D36DC46A60CB PUSH1 0xC0 SHL PUSH2 0x1CFD JUMP JUMPDEST PUSH2 0x1D9A PUSH8 0xB5751D2114588579 PUSH1 0xC0 SHL PUSH2 0x1CFD JUMP JUMPDEST PUSH1 0x0 PUSH1 0x1 PUSH1 0x2 DUP5 PUSH2 0x1DAB SWAP2 SWAP1 PUSH2 0x24BC JUMP JUMPDEST PUSH2 0x1DB5 SWAP2 SWAP1 PUSH2 0x2276 JUMP JUMPDEST SWAP1 POP PUSH2 0x1DCB PUSH8 0xF376A1034A52FB7E PUSH1 0xC0 SHL PUSH2 0x1CFD JUMP JUMPDEST PUSH2 0x1DDF PUSH8 0x8E500D896E069614 PUSH1 0xC0 SHL PUSH2 0x1CFD JUMP JUMPDEST JUMPDEST DUP2 DUP2 LT ISZERO PUSH2 0x1E3D JUMPI PUSH2 0x1DFC PUSH8 0xC6E2BE7ADE49C94B PUSH1 0xC0 SHL PUSH2 0x1CFD JUMP JUMPDEST DUP1 SWAP2 POP PUSH2 0x1E13 PUSH8 0x7945B785D72A1CFA PUSH1 0xC0 SHL PUSH2 0x1CFD JUMP JUMPDEST PUSH1 0x2 DUP2 DUP3 DUP6 PUSH2 0x1E22 SWAP2 SWAP1 PUSH2 0x24BC JUMP JUMPDEST PUSH2 0x1E2C SWAP2 SWAP1 PUSH2 0x2276 JUMP JUMPDEST PUSH2 0x1E36 SWAP2 SWAP1 PUSH2 0x24BC JUMP JUMPDEST SWAP1 POP PUSH2 0x1DE0 JUMP JUMPDEST POP PUSH2 0x1EBA JUMP JUMPDEST PUSH2 0x1E57 PUSH8 0xFB80F74426CD0FE4 PUSH1 0xC0 SHL PUSH2 0x1CFD JUMP JUMPDEST PUSH2 0x1E6B PUSH8 0xBD0B12833157D971 PUSH1 0xC0 SHL PUSH2 0x1CFD JUMP JUMPDEST PUSH1 0x0 DUP3 EQ PUSH2 0x1EA4 JUMPI PUSH2 0x1E87 PUSH8 0x5EBC1E36145D74B6 PUSH1 0xC0 SHL PUSH2 0x1CFD JUMP JUMPDEST PUSH2 0x1E9B PUSH8 0x29B934B83460BB9F PUSH1 0xC0 SHL PUSH2 0x1CFD JUMP JUMPDEST PUSH1 0x1 SWAP1 POP PUSH2 0x1EB9 JUMP JUMPDEST PUSH2 0x1EB8 PUSH8 0x1BD436B9DABEB2E0 PUSH1 0xC0 SHL PUSH2 0x1CFD JUMP JUMPDEST JUMPDEST JUMPDEST SWAP2 SWAP1 POP JUMP JUMPDEST PUSH1 0x0 DUP1 REVERT JUMPDEST PUSH1 0x0 DUP2 SWAP1 POP SWAP2 SWAP1 POP JUMP JUMPDEST PUSH2 0x1ED7 DUP2 PUSH2 0x1EC4 JUMP JUMPDEST DUP2 EQ PUSH2 0x1EE2 JUMPI PUSH1 0x0 DUP1 REVERT JUMPDEST POP JUMP JUMPDEST PUSH1 0x0 DUP2 CALLDATALOAD SWAP1 POP PUSH2 0x1EF4 DUP2 PUSH2 0x1ECE JUMP JUMPDEST SWAP3 SWAP2 POP POP JUMP JUMPDEST PUSH1 0x0 PUSH1 0x20 DUP3 DUP5 SUB SLT ISZERO PUSH2 0x1F10 JUMPI PUSH2 0x1F0F PUSH2 0x1EBF JUMP JUMPDEST JUMPDEST PUSH1 0x0 PUSH2 0x1F1E DUP5 DUP3 DUP6 ADD PUSH2 0x1EE5 JUMP JUMPDEST SWAP2 POP POP SWAP3 SWAP2 POP POP JUMP JUMPDEST PUSH2 0x1F30 DUP2 PUSH2 0x1EC4 JUMP JUMPDEST DUP3 MSTORE POP POP JUMP JUMPDEST PUSH1 0x0 PUSH1 0x20 DUP3 ADD SWAP1 POP PUSH2 0x1F4B PUSH1 0x0 DUP4 ADD DUP5 PUSH2 0x1F27 JUMP JUMPDEST SWAP3 SWAP2 POP POP JUMP JUMPDEST PUSH1 0x0 DUP1 PUSH1 0x0 PUSH1 0x60 DUP5 DUP7 SUB SLT ISZERO PUSH2 0x1F6A JUMPI PUSH2 0x1F69 PUSH2 0x1EBF JUMP JUMPDEST JUMPDEST PUSH1 0x0 PUSH2 0x1F78 DUP7 DUP3 DUP8 ADD PUSH2 0x1EE5 JUMP JUMPDEST SWAP4 POP POP PUSH1 0x20 PUSH2 0x1F89 DUP7 DUP3 DUP8 ADD PUSH2 0x1EE5 JUMP JUMPDEST SWAP3 POP POP PUSH1 0x40 PUSH2 0x1F9A DUP7 DUP3 DUP8 ADD PUSH2 0x1EE5 JUMP JUMPDEST SWAP2 POP POP SWAP3 POP SWAP3 POP SWAP3 JUMP JUMPDEST PUSH1 0x0 PUSH1 0x40 DUP3 ADD SWAP1 POP PUSH2 0x1FB9 PUSH1 0x0 DUP4 ADD DUP6 PUSH2 0x1F27 JUMP JUMPDEST PUSH2 0x1FC6 PUSH1 0x20 DUP4 ADD DUP5 PUSH2 0x1F27 JUMP JUMPDEST SWAP4 SWAP3 POP POP POP JUMP JUMPDEST PUSH1 0x0 PUSH20 0xFFFFFFFFFFFFFFFFFFFFFFFFFFFFFFFFFFFFFFFF DUP3 AND SWAP1 POP SWAP2 SWAP1 POP JUMP JUMPDEST PUSH1 0x0 PUSH2 0x1FF8 DUP3 PUSH2 0x1FCD JUMP JUMPDEST SWAP1 POP SWAP2 SWAP1 POP JUMP JUMPDEST PUSH2 0x2008 DUP2 PUSH2 0x1FED JUMP JUMPDEST DUP3 MSTORE POP POP JUMP JUMPDEST PUSH1 0x0 PUSH1 0x20 DUP3 ADD SWAP1 POP PUSH2 0x2023 PUSH1 0x0 DUP4 ADD DUP5 PUSH2 0x1FFF JUMP JUMPDEST SWAP3 SWAP2 POP POP JUMP JUMPDEST PUSH1 0x0 DUP1 PUSH1 0x40 DUP4 DUP6 SUB SLT ISZERO PUSH2 0x2040 JUMPI PUSH2 0x203F PUSH2 0x1EBF JUMP JUMPDEST JUMPDEST PUSH1 0x0 PUSH2 0x204E DUP6 DUP3 DUP7 ADD PUSH2 0x1EE5 JUMP JUMPDEST SWAP3 POP POP PUSH1 0x20 PUSH2 0x205F DUP6 DUP3 DUP7 ADD PUSH2 0x1EE5 JUMP JUMPDEST SWAP2 POP POP SWAP3 POP SWAP3 SWAP1 POP JUMP JUMPDEST PUSH2 0x2072 DUP2 PUSH2 0x1FED JUMP JUMPDEST DUP2 EQ PUSH2 0x207D JUMPI PUSH1 0x0 DUP1 REVERT JUMPDEST POP JUMP JUMPDEST PUSH1 0x0 DUP2 CALLDATALOAD SWAP1 POP PUSH2 0x208F DUP2 PUSH2 0x2069 JUMP JUMPDEST SWAP3 SWAP2 POP POP JUMP JUMPDEST PUSH1 0x0 PUSH1 0x20 DUP3 DUP5 SUB SLT ISZERO PUSH2 0x20AB JUMPI PUSH2 0x20AA PUSH2 0x1EBF JUMP JUMPDEST JUMPDEST PUSH1 0x0 PUSH2 0x20B9 DUP5 DUP3 DUP6 ADD PUSH2 0x2080 JUMP JUMPDEST SWAP2 POP POP SWAP3 SWAP2 POP POP JUMP JUMPDEST PUSH1 0x0 DUP3 DUP3 MSTORE PUSH1 0x20 DUP3 ADD SWAP1 POP SWAP3 SWAP2 POP POP JUMP JUMPDEST PUSH32 0x43616E6E6F742073776170207A65726F20616D6F756E74000000000000000000 PUSH1 0x0 DUP3 ADD MSTORE POP JUMP JUMPDEST PUSH1 0x0 PUSH2 0x2109 PUSH1 0x17 DUP4 PUSH2 0x20C2 JUMP JUMPDEST SWAP2 POP PUSH2 0x2114 DUP3 PUSH2 0x20D3 JUMP JUMPDEST PUSH1 0x20 DUP3 ADD SWAP1 POP SWAP2 SWAP1 POP JUMP JUMPDEST PUSH1 0x0 PUSH1 0x20 DUP3 ADD SWAP1 POP DUP2 DUP2 SUB PUSH1 0x0 DUP4 ADD MSTORE PUSH2 0x2138 DUP2 PUSH2 0x20FC JUMP JUMPDEST SWAP1 POP SWAP2 SWAP1 POP JUMP JUMPDEST PUSH32 0x506F6F6C206E6F7420696E697469616C697A6564000000000000000000000000 PUSH1 0x0 DUP3 ADD MSTORE POP JUMP JUMPDEST PUSH1 0x0 PUSH2 0x2175 PUSH1 0x14 DUP4 PUSH2 0x20C2 JUMP JUMPDEST SWAP2 POP PUSH2 0x2180 DUP3 PUSH2 0x213F JUMP JUMPDEST PUSH1 0x20 DUP3 ADD SWAP1 POP SWAP2 SWAP1 POP JUMP JUMPDEST PUSH1 0x0 PUSH1 0x20 DUP3 ADD SWAP1 POP DUP2 DUP2 SUB PUSH1 0x0 DUP4 ADD MSTORE PUSH2 0x21A4 DUP2 PUSH2 0x2168 JUMP JUMPDEST SWAP1 POP SWAP2 SWAP1 POP JUMP JUMPDEST PUSH1 0x0 PUSH1 0x60 DUP3 ADD SWAP1 POP PUSH2 0x21C0 PUSH1 0x0 DUP4 ADD DUP7 PUSH2 0x1FFF JUMP JUMPDEST PUSH2 0x21CD PUSH1 0x20 DUP4 ADD DUP6 PUSH2 0x1FFF JUMP JUMPDEST PUSH2 0x21DA PUSH1 0x40 DUP4 ADD DUP5 PUSH2 0x1F27 JUMP JUMPDEST SWAP5 SWAP4 POP POP POP POP JUMP JUMPDEST PUSH1 0x0 DUP2 ISZERO ISZERO SWAP1 POP SWAP2 SWAP1 POP JUMP JUMPDEST PUSH2 0x21F7 DUP2 PUSH2 0x21E2 JUMP JUMPDEST DUP2 EQ PUSH2 0x2202 JUMPI PUSH1 0x0 DUP1 REVERT JUMPDEST POP JUMP JUMPDEST PUSH1 0x0 DUP2 MLOAD SWAP1 POP PUSH2 0x2214 DUP2 PUSH2 0x21EE JUMP JUMPDEST SWAP3 SWAP2 POP POP JUMP JUMPDEST PUSH1 0x0 PUSH1 0x20 DUP3 DUP5 SUB SLT ISZERO PUSH2 0x2230 JUMPI PUSH2 0x222F PUSH2 0x1EBF JUMP JUMPDEST JUMPDEST PUSH1 0x0 PUSH2 0x223E DUP5 DUP3 DUP6 ADD PUSH2 0x2205 JUMP JUMPDEST SWAP2 POP POP SWAP3 SWAP2 POP POP JUMP JUMPDEST PUSH32 0x4E487B7100000000000000000000000000000000000000000000000000000000 PUSH1 0x0 MSTORE PUSH1 0x11 PUSH1 0x4 MSTORE PUSH1 0x24 PUSH1 0x0 REVERT JUMPDEST PUSH1 0x0 PUSH2 0x2281 DUP3 PUSH2 0x1EC4 JUMP JUMPDEST SWAP2 POP PUSH2 0x228C DUP4 PUSH2 0x1EC4 JUMP JUMPDEST SWAP3 POP DUP3 DUP3 ADD SWAP1 POP DUP1 DUP3 GT ISZERO PUSH2 0x22A4 JUMPI PUSH2 0x22A3 PUSH2 0x2247 JUMP JUMPDEST JUMPDEST SWAP3 SWAP2 POP POP JUMP JUMPDEST PUSH32 0x496E73756666696369656E74206F757470757420616D6F756E74000000000000 PUSH1 0x0 DUP3 ADD MSTORE POP JUMP JUMPDEST PUSH1 0x0 PUSH2 0x22E0 PUSH1 0x1A DUP4 PUSH2 0x20C2 JUMP JUMPDEST SWAP2 POP PUSH2 0x22EB DUP3 PUSH2 0x22AA JUMP JUMPDEST PUSH1 0x20 DUP3 ADD SWAP1 POP SWAP2 SWAP1 POP JUMP JUMPDEST PUSH1 0x0 PUSH1 0x20 DUP3 ADD SWAP1 POP DUP2 DUP2 SUB PUSH1 0x0 DUP4 ADD MSTORE PUSH2 0x230F DUP2 PUSH2 0x22D3 JUMP JUMPDEST SWAP1 POP SWAP2 SWAP1 POP JUMP JUMPDEST PUSH1 0x0 PUSH2 0x2321 DUP3 PUSH2 0x1EC4 JUMP JUMPDEST SWAP2 POP PUSH2 0x232C DUP4 PUSH2 0x1EC4 JUMP JUMPDEST SWAP3 POP DUP3 DUP3 SUB SWAP1 POP DUP2 DUP2 GT ISZERO PUSH2 0x2344 JUMPI PUSH2 0x2343 PUSH2 0x2247 JUMP JUMPDEST JUMPDEST SWAP3 SWAP2 POP POP JUMP JUMPDEST PUSH1 0x0 PUSH1 0x40 DUP3 ADD SWAP1 POP PUSH2 0x235F PUSH1 0x0 DUP4 ADD DUP6 PUSH2 0x1FFF JUMP JUMPDEST PUSH2 0x236C PUSH1 0x20 DUP4 ADD DUP5 PUSH2 0x1F27 JUMP JUMPDEST SWAP4 SWAP3 POP POP POP JUMP JUMPDEST PUSH32 0x496E70757420616D6F756E74206D757374206265203E20300000000000000000 PUSH1 0x0 DUP3 ADD MSTORE POP JUMP JUMPDEST PUSH1 0x0 PUSH2 0x23A9 PUSH1 0x18 DUP4 PUSH2 0x20C2 JUMP JUMPDEST SWAP2 POP PUSH2 0x23B4 DUP3 PUSH2 0x2373 JUMP JUMPDEST PUSH1 0x20 DUP3 ADD SWAP1 POP SWAP2 SWAP1 POP JUMP JUMPDEST PUSH1 0x0 PUSH1 0x20 DUP3 ADD SWAP1 POP DUP2 DUP2 SUB PUSH1 0x0 DUP4 ADD MSTORE PUSH2 0x23D8 DUP2 PUSH2 0x239C JUMP JUMPDEST SWAP1 POP SWAP2 SWAP1 POP JUMP JUMPDEST PUSH32 0x5265736572766573206D757374206265203E2030000000000000000000000000 PUSH1 0x0 DUP3 ADD MSTORE POP JUMP JUMPDEST PUSH1 0x0 PUSH2 0x2415 PUSH1 0x14 DUP4 PUSH2 0x20C2 JUMP JUMPDEST SWAP2 POP PUSH2 0x2420 DUP3 PUSH2 0x23DF JUMP JUMPDEST PUSH1 0x20 DUP3 ADD SWAP1 POP SWAP2 SWAP1 POP JUMP JUMPDEST PUSH1 0x0 PUSH1 0x20 DUP3 ADD SWAP1 POP DUP2 DUP2 SUB PUSH1 0x0 DUP4 ADD MSTORE PUSH2 0x2444 DUP2 PUSH2 0x2408 JUMP JUMPDEST SWAP1 POP SWAP2 SWAP1 POP JUMP JUMPDEST PUSH1 0x0 PUSH2 0x2456 DUP3 PUSH2 0x1EC4 JUMP JUMPDEST SWAP2 POP PUSH2 0x2461 DUP4 PUSH2 0x1EC4 JUMP JUMPDEST SWAP3 POP DUP3 DUP3 MUL PUSH2 0x246F DUP2 PUSH2 0x1EC4 JUMP JUMPDEST SWAP2 POP DUP3 DUP3 DIV DUP5 EQ DUP4 ISZERO OR PUSH2 0x2486 JUMPI PUSH2 0x2485 PUSH2 0x2247 JUMP JUMPDEST JUMPDEST POP SWAP3 SWAP2 POP POP JUMP JUMPDEST PUSH32 0x4E487B7100000000000000000000000000000000000000000000000000000000 PUSH1 0x0 MSTORE PUSH1 0x12 PUSH1 0x4 MSTORE PUSH1 0x24 PUSH1 0x0 REVERT JUMPDEST PUSH1 0x0 PUSH2 0x24C7 DUP3 PUSH2 0x1EC4 JUMP JUMPDEST SWAP2 POP PUSH2 0x24D2 DUP4 PUSH2 0x1EC4 JUMP JUMPDEST SWAP3 POP DUP3 PUSH2 0x24E2 JUMPI PUSH2 0x24E1 PUSH2 0x248D JUMP JUMPDEST JUMPDEST DUP3 DUP3 DIV SWAP1 POP SWAP3 SWAP2 POP POP JUMP JUMPDEST PUSH32 0x526573657276652041206973207A65726F000000000000000000000000000000 PUSH1 0x0 DUP3 ADD MSTORE POP JUMP JUMPDEST PUSH1 0x0 PUSH2 0x2523 PUSH1 0x11 DUP4 PUSH2 0x20C2 JUMP JUMPDEST SWAP2 POP PUSH2 0x252E DUP3 PUSH2 0x24ED JUMP JUMPDEST PUSH1 0x20 DUP3 ADD SWAP1 POP SWAP2 SWAP1 POP JUMP JUMPDEST PUSH1 0x0 PUSH1 0x20 DUP3 ADD SWAP1 POP DUP2 DUP2 SUB PUSH1 0x0 DUP4 ADD MSTORE PUSH2 0x2552 DUP2 PUSH2 0x2516 JUMP JUMPDEST SWAP1 POP SWAP2 SWAP1 POP JUMP JUMPDEST PUSH32 0x496E73756666696369656E74206C697175696469747900000000000000000000 PUSH1 0x0 DUP3 ADD MSTORE POP JUMP JUMPDEST PUSH1 0x0 PUSH2 0x258F PUSH1 0x16 DUP4 PUSH2 0x20C2 JUMP JUMPDEST SWAP2 POP PUSH2 0x259A DUP3 PUSH2 0x2559 JUMP JUMPDEST PUSH1 0x20 DUP3 ADD SWAP1 POP SWAP2 SWAP1 POP JUMP JUMPDEST PUSH1 0x0 PUSH1 0x20 DUP3 ADD SWAP1 POP DUP2 DUP2 SUB PUSH1 0x0 DUP4 ADD MSTORE PUSH2 0x25BE DUP2 PUSH2 0x2582 JUMP JUMPDEST SWAP1 POP SWAP2 SWAP1 POP JUMP JUMPDEST PUSH32 0x43616E6E6F742072656D6F7665207A65726F206C697175696469747900000000 PUSH1 0x0 DUP3 ADD MSTORE POP JUMP JUMPDEST PUSH1 0x0 PUSH2 0x25FB PUSH1 0x1C DUP4 PUSH2 0x20C2 JUMP JUMPDEST SWAP2 POP PUSH2 0x2606 DUP3 PUSH2 0x25C5 JUMP JUMPDEST PUSH1 0x20 DUP3 ADD SWAP1 POP SWAP2 SWAP1 POP JUMP JUMPDEST PUSH1 0x0 PUSH1 0x20 DUP3 ADD SWAP1 POP DUP2 DUP2 SUB PUSH1 0x0 DUP4 ADD MSTORE PUSH2 0x262A DUP2 PUSH2 0x25EE JUMP JUMPDEST SWAP1 POP SWAP2 SWAP1 POP JUMP JUMPDEST PUSH32 0x4E6F206C697175696469747920696E20706F6F6C000000000000000000000000 PUSH1 0x0 DUP3 ADD MSTORE POP JUMP JUMPDEST PUSH1 0x0 PUSH2 0x2667 PUSH1 0x14 DUP4 PUSH2 0x20C2 JUMP JUMPDEST SWAP2 POP PUSH2 0x2672 DUP3 PUSH2 0x2631 JUMP JUMPDEST PUSH1 0x20 DUP3 ADD SWAP1 POP SWAP2 SWAP1 POP JUMP JUMPDEST PUSH1 0x0 PUSH1 0x20 DUP3 ADD SWAP1 POP DUP2 DUP2 SUB PUSH1 0x0 DUP4 ADD MSTORE PUSH2 0x2696 DUP2 PUSH2 0x265A JUMP JUMPDEST SWAP1 POP SWAP2 SWAP1 POP JUMP JUMPDEST PUSH32 0x576974686472617720616D6F756E747320746F6F20736D616C6C000000000000 PUSH1 0x0 DUP3 ADD MSTORE POP JUMP JUMPDEST PUSH1 0x0 PUSH2 0x26D3 PUSH1 0x1A DUP4 PUSH2 0x20C2 JUMP JUMPDEST SWAP2 POP PUSH2 0x26DE DUP3 PUSH2 0x269D JUMP JUMPDEST PUSH1 0x20 DUP3 ADD SWAP1 POP SWAP2 SWAP1 POP JUMP JUMPDEST PUSH1 0x0 PUSH1 0x20 DUP3 ADD SWAP1 POP DUP2 DUP2 SUB PUSH1 0x0 DUP4 ADD MSTORE PUSH2 0x2702 DUP2 PUSH2 0x26C6 JUMP JUMPDEST SWAP1 POP SWAP2 SWAP1 POP JUMP JUMPDEST PUSH1 0x0 PUSH1 0x60 DUP3 ADD SWAP1 POP PUSH2 0x271E PUSH1 0x0 DUP4 ADD DUP7 PUSH2 0x1F27 JUMP JUMPDEST PUSH2 0x272B PUSH1 0x20 DUP4 ADD DUP6 PUSH2 0x1F27 JUMP JUMPDEST PUSH2 0x2738 PUSH1 0x40 DUP4 ADD DUP5 PUSH2 0x1F27 JUMP JUMPDEST SWAP5 SWAP4 POP POP POP POP JUMP JUMPDEST PUSH32 0x43616E6E6F7420616464207A65726F206C697175696469747900000000000000 PUSH1 0x0 DUP3 ADD MSTORE POP JUMP JUMPDEST PUSH1 0x0 PUSH2 0x2776 PUSH1 0x19 DUP4 PUSH2 0x20C2 JUMP JUMPDEST SWAP2 POP PUSH2 0x2781 DUP3 PUSH2 0x2740 JUMP JUMPDEST PUSH1 0x20 DUP3 ADD SWAP1 POP SWAP2 SWAP1 POP JUMP JUMPDEST PUSH1 0x0 PUSH1 0x20 DUP3 ADD SWAP1 POP DUP2 DUP2 SUB PUSH1 0x0 DUP4 ADD MSTORE PUSH2 0x27A5 DUP2 PUSH2 0x2769 JUMP JUMPDEST SWAP1 POP SWAP2 SWAP1 POP JUMP JUMPDEST PUSH32 0x4D757374206D6174636820706F6F6C20726174696F0000000000000000000000 PUSH1 0x0 DUP3 ADD MSTORE POP JUMP JUMPDEST PUSH1 0x0 PUSH2 0x27E2 PUSH1 0x15 DUP4 PUSH2 0x20C2 JUMP JUMPDEST SWAP2 POP PUSH2 0x27ED DUP3 PUSH2 0x27AC JUMP JUMPDEST PUSH1 0x20 DUP3 ADD SWAP1 POP SWAP2 SWAP1 POP JUMP JUMPDEST PUSH1 0x0 PUSH1 0x20 DUP3 ADD SWAP1 POP DUP2 DUP2 SUB PUSH1 0x0 DUP4 ADD MSTORE PUSH2 0x2811 DUP2 PUSH2 0x27D5 JUMP JUMPDEST SWAP1 POP SWAP2 SWAP1 POP JUMP INVALID LOG2 PUSH5 0x6970667358 0x22 SLT KECCAK256 0xC7 PUSH22 0x23A4C04D87DA93047D60A93A710BCD6BD257D920DD49 0xE3 SELFDESTRUCT 0xC2 0xDA 0xDE 0xD5 PUSH31 0xD264736F6C6343000813003300000000000000000000000000000000000000 "},"methodIdentifiers":{"addLiquidity(uint256,uint256)":"9cd441da","getAmountOut(uint256,uint256,uint256)":"054d50d4","getPrice()":"98d5fdca","getReserves()":"0902f1ac","liquidity(address)":"b8c876b1","removeLiquidity(uint256)":"9c8f9f23","reserveA()":"dc5fa6c5","reserveB()":"19e36f3b","swapAForB(uint256)":"03102091","swapBForA(uint256)":"e619a498","tokenA()":"0fc63d10","tokenB()":"5f64b55b","totalLiquidity()":"15770f92"}}}}}