{
  "_format": "hh-sol-artifact-1",
  "contractName": "DEX",
  "sourceName": "contracts/DEX.sol",
  "abi": [
    {
      "inputs": [
        {
          "internalType": "address",
          "name": "_tokenA",
          "type": "address"
        },
        {
          "internalType": "address",
          "name": "_tokenB",
          "type": "address"
        }
      ],
      "stateMutability": "nonpayable",
      "type": "constructor"
    },
    {
      "anonymous": false,
      "inputs": [
        {
          "indexed": true,
          "internalType": "address",
          "name": "provider",
          "type": "address"
        },
        {
          "indexed": false,
          "internalType": "uint256",
          "name": "amountA",
          "type": "uint256"
        },
        {
          "indexed": false,
          "internalType": "uint256",
          "name": "amountB",
          "type": "uint256"
        },
        {
          "indexed": false,
          "internalType": "uint256",
          "name": "liquidityMinted",
          "type": "uint256"
        }
      ],
      "name": "LiquidityAdded",
      "type": "event"
    },
    {
      "anonymous": false,
      "inputs": [
        {
          "indexed": true,
          "internalType": "address",
          "name": "provider",
          "type": "address"
        },
        {
          "indexed": false,
          "internalType": "uint256",
          "name": "amountA",
          "type": "uint256"
        },
        {
          "indexed": false,
          "internalType": "uint256",
          "name": "amountB",
          "type": "uint256"
        },
        {
          "indexed": false,
          "internalType": "uint256",
          "name": "liquidityBurned",
          "type": "uint256"
        }
      ],
      "name": "LiquidityRemoved",
      "type": "event"
    },
    {
      "anonymous": false,
      "inputs": [
        {
          "indexed": true,
          "internalType": "address",
          "name": "trader",
          "type": "address"
        },
        {
          "indexed": true,
          "internalType": "address",
          "name": "tokenIn",
          "type": "address"
        },
        {
          "indexed": true,
          "internalType": "address",
          "name": "tokenOut",
          "type": "address"
        },
        {
          "indexed": false,
          "internalType": "uint256",
          "name": "amountIn",
          "type": "uint256"
        },
        {
          "indexed": false,
          "internalType": "uint256",
          "name": "amountOut",
          "type": "uint256"
        }
      ],
      "name": "Swap",
      "type": "event"
    },
    {
      "inputs": [
        {
          "internalType": "uint256",
          "name": "amountA",
          "type": "uint256"
        },
        {
          "internalType": "uint256",
          "name": "amountB",
          "type": "uint256"
        }
      ],
      "name": "addLiquidity",
      "outputs": [
        {
          "internalType": "uint256",
          "name": "liquidityMinted",
          "type": "uint256"
        }
      ],
      "stateMutability": "nonpayable",
      "type": "function"
    },
    {
      "inputs": [
        {
          "internalType": "uint256",
          "name": "amountAIn",
          "type": "uint256"
        },
        {
          "internalType": "uint256",
          "name": "reserveIn",
          "type": "uint256"
        },
        {
          "internalType": "uint256",
          "name": "reserveOut",
          "type": "uint256"
        }
      ],
      "name": "getAmountOut",
      "outputs": [
        {
          "internalType": "uint256",
          "name": "amountBOut",
          "type": "uint256"
        }
      ],
      "stateMutability": "pure",
      "type": "function"
    },
    {
      "inputs": [],
      "name": "getPrice",
      "outputs": [
        {
          "internalType": "uint256",
          "name": "price",
          "type": "uint256"
        }
      ],
      "stateMutability": "view",
      "type": "function"
    },
    {
      "inputs": [],
      "name": "getReserves",
      "outputs": [
        {
          "internalType": "uint256",
          "name": "_reserveA",
          "type": "uint256"
        },
        {
          "internalType": "uint256",
          "name": "_reserveB",
          "type": "uint256"
        }
      ],
      "stateMutability": "view",
      "type": "function"
    },
    {
      "inputs": [
        {
          "internalType": "address",
          "name": "",
          "type": "address"
        }
      ],
      "name": "liquidity",
      "outputs": [
        {
          "internalType": "uint256",
          "name": "",
          "type": "uint256"
        }
      ],
      "stateMutability": "view",
      "type": "function"
    },
    {
      "inputs": [
        {
          "internalType": "uint256",
          "name": "liquidityAmount",
          "type": "uint256"
        }
      ],
      "name": "removeLiquidity",
      "outputs": [
        {
          "internalType": "uint256",
          "name": "amountA",
          "type": "uint256"
        },
        {
          "internalType": "uint256",
          "name": "amountB",
          "type": "uint256"
        }
      ],
      "stateMutability": "nonpayable",
      "type": "function"
    },
    {
      "inputs": [],
      "name": "reserveA",
      "outputs": [
        {
          "internalType": "uint256",
          "name": "",
          "type": "uint256"
        }
      ],
      "stateMutability": "view",
      "type": "function"
    },
    {
      "inputs": [],
      "name": "reserveB",
      "outputs": [
        {
          "internalType": "uint256",
          "name": "",
          "type": "uint256"
        }
      ],
      "stateMutability": "view",
      "type": "function"
    },
    {
      "inputs": [
        {
          "internalType": "uint256",
          "name": "amountAIn",
          "type": "uint256"
        }
      ],
      "name": "swapAForB",
      "outputs": [
        {
          "internalType": "uint256",
          "name": "amountBOut",
          "type": "uint256"
        }
      ],
      "stateMutability": "nonpayable",
      "type": "function"
    },
    {
      "inputs": [
        {
          "internalType": "uint256",
          "name": "amountBIn",
          "type": "uint256"
        }
      ],
      "name": "swapBForA",
      "outputs": [
        {
          "internalType": "uint256",
          "name": "amountAOut",
          "type": "uint256"
        }
      ],
      "stateMutability": "nonpayable",
      "type": "function"
    },
    {
      "inputs": [],
      "name": "tokenA",
      "outputs": [
        {
          "internalType": "address",
          "name": "",
          "type": "address"
        }
      ],
      "stateMutability": "view",
      "type": "function"
    },
    {
      "inputs": [],
      "name": "tokenB",
      "outputs": [
        {
          "internalType": "address",
          "name": "",
          "type": "address"
        }
      ],
      "stateMutability": "view",
      "type": "function"
    },
    {
      "inputs": [],
      "name": "totalLiquidity",
      "outputs": [
        {
          "internalType": "uint256",
          "name": "",
          "type": "uint256"
        }
      ],
      "stateMutability": "view",
      "type": "function"
    }
  ],
  "bytecode": "0x60c06040523480156200001157600080fd5b5060405162002a7738038062002a77833981810160405281019062000037919062000168565b620000536712a03b648776168060c01b620000fb60201b60201c565b6200006f67c7dfad22802d0ef160c01b620000fb60201b60201c565b8173ffffffffffffffffffffffffffffffffffffffff1660808173ffffffffffffffffffffffffffffffffffffffff1681525050620000bf67b1922fc4c4b445b160c01b620000fb60201b60201c565b8073ffffffffffffffffffffffffffffffffffffffff1660a08173ffffffffffffffffffffffffffffffffffffffff16815250505050620001af565b50565b600080fd5b600073ffffffffffffffffffffffffffffffffffffffff82169050919050565b6000620001308262000103565b9050919050565b620001428162000123565b81146200014e57600080fd5b50565b600081519050620001628162000137565b92915050565b60008060408385031215620001825762000181620000fe565b5b6000620001928582860162000151565b9250506020620001a58582860162000151565b9150509250929050565b60805160a05161284e620002296000396000818161066d0152818161073401528181610ad6015281816110e5015281816113d1015281816119770152611c490152600081816104970152818161076b01528181610aa60152818161101e0152818161130801528181611b4b0152611c12015261284e6000f3fe608060405234801561001057600080fd5b50600436106100cf5760003560e01c80635f64b55b1161008c5780639cd441da116100665780639cd441da1461021a578063b8c876b11461024a578063dc5fa6c51461027a578063e619a49814610298576100cf565b80635f64b55b146101ad57806398d5fdca146101cb5780639c8f9f23146101e9576100cf565b806303102091146100d4578063054d50d4146101045780630902f1ac146101345780630fc63d101461015357806315770f921461017157806319e36f3b1461018f575b600080fd5b6100ee60048036038101906100e99190611efa565b6102c8565b6040516100fb9190611f36565b60405180910390f35b61011e60048036038101906101199190611f51565b61081f565b60405161012b9190611f36565b60405180910390f35b61013c610a57565b60405161014a929190611fa4565b60405180910390f35b61015b610aa4565b604051610168919061200e565b60405180910390f35b610179610ac8565b6040516101869190611f36565b60405180910390f35b610197610ace565b6040516101a49190611f36565b60405180910390f35b6101b5610ad4565b6040516101c2919061200e565b60405180910390f35b6101d3610af8565b6040516101e09190611f36565b60405180910390f35b61020360048036038101906101fe9190611efa565b610bf2565b604051610211929190611fa4565b60405180910390f35b610234600480360381019061022f9190612029565b611229565b6040516102419190611f36565b60405180910390f35b610264600480360381019061025f9190612095565b61178a565b6040516102719190611f36565b60405180910390f35b6102826117a2565b60405161028f9190611f36565b60405180910390f35b6102b260048036038101906102ad9190611efa565b6117a8565b6040516102bf9190611f36565b60405180910390f35b60006102de67a1f197d92889f86160c01b611cfd565b6102f26707ea5def5b3a4f7960c01b611cfd565b61030667aad70076c195f5e160c01b611cfd565b61031a67da8771bd9241996e60c01b611cfd565b6000821161035d576040517f08c379a00000000000000000000000000000000000000000000000000000000081526004016103549061211f565b60405180910390fd5b610371676ffd78fef64a1f6960c01b611cfd565b61038567609a7a8e393c82ff60c01b611cfd565b6103996783aa11b5c109ea3760c01b611cfd565b6000805490506103b367253578a76622ba0d60c01b611cfd565b6103c767f8b7c1ec400072e560c01b611cfd565b600060015490506103e26786e4cb6b0031c3e160c01b611cfd565b6103f6675471ef3207d988b860c01b611cfd565b61040a67ecdf46c5c7cb9e2b60c01b611cfd565b60008211801561041a5750600081115b610459576040517f08c379a00000000000000000000000000000000000000000000000000000000081526004016104509061218b565b60405180910390fd5b61046d6732e11753c0fef0d960c01b611cfd565b61048167fbe8bef10071925360c01b611cfd565b610495672897463866f52f9260c01b611cfd565b7f000000000000000000000000000000000000000000000000000000000000000073ffffffffffffffffffffffffffffffffffffffff166323b872dd3330876040518463ffffffff1660e01b81526004016104f2939291906121ab565b6020604051808303816000875af1158015610511573d6000803e3d6000fd5b505050506040513d601f19601f82011682018060405250810190610535919061221a565b5061054a67d1b876c7b9ad8f7860c01b611cfd565b8360008082825461055b9190612276565b92505081905550610576678988ff66b27e1ffe60c01b611cfd565b61058184838361081f565b925061059767ab7dd7d86132446860c01b611cfd565b6105ab67cd1b9915bdda306360c01b611cfd565b6105bf677f95eb80cf75835260c01b611cfd565b60008311610602576040517f08c379a00000000000000000000000000000000000000000000000000000000081526004016105f9906122f6565b60405180910390fd5b61061667fed106ca89cd01d360c01b611cfd565b61062a671aeb314cfcf5f1e360c01b611cfd565b826001600082825461063c9190612316565b9250508190555061065767883e8d9e704bd4b460c01b611cfd565b61066b671e2ddedca7d08f6f60c01b611cfd565b7f000000000000000000000000000000000000000000000000000000000000000073ffffffffffffffffffffffffffffffffffffffff1663a9059cbb33856040518363ffffffff1660e01b81526004016106c692919061234a565b6020604051808303816000875af11580156106e5573d6000803e3d6000fd5b505050506040513d601f19601f82011682018060405250810190610709919061221a565b5061071e672df6ea001c2c673260c01b611cfd565b610732675d4c44fbc792c19460c01b611cfd565b7f000000000000000000000000000000000000000000000000000000000000000073ffffffffffffffffffffffffffffffffffffffff167f000000000000000000000000000000000000000000000000000000000000000073ffffffffffffffffffffffffffffffffffffffff163373ffffffffffffffffffffffffffffffffffffffff167fcd3829a3813dc3cdd188fd3d01dcf3268c16be2fdd2dd21d0665418816e4606287876040516107e8929190611fa4565b60405180910390a461080467540de40f9deb4b0f60c01b611cfd565b61081867b5350f6dddb6bef760c01b611cfd565b5050919050565b600061083567ae2f862056bc329c60c01b611cfd565b61084967a6c6a7b816d7c10c60c01b611cfd565b61085d676fd6ad6b50a86eb760c01b611cfd565b61087167fcf89f619565323a60c01b611cfd565b600084116108b4576040517f08c379a00000000000000000000000000000000000000000000000000000000081526004016108ab906123bf565b60405180910390fd5b6108c8672d78754a40e5d4b160c01b611cfd565b6108dc67f704b5f91dbc517a60c01b611cfd565b6108f0672e2b0302104f5d2660c01b611cfd565b61090467844b7c0562a0ad6660c01b611cfd565b6000831180156109145750600082115b610953576040517f08c379a000000000000000000000000000000000000000000000000000000000815260040161094a9061242b565b60405180910390fd5b61096767f9233b8cceec98a260c01b611cfd565b61097b67a7190270043e562260c01b611cfd565b61098f67962ae589aede901c60c01b611cfd565b60006103e86103e5866109a2919061244b565b6109ac91906124bc565b90506109c26795e11089126012cc60c01b611cfd565b6109d667668a90e8a324823b60c01b611cfd565b600083826109e4919061244b565b90506109fa67adb58cb032993f6560c01b611cfd565b610a0e671beced2b43ab1ee460c01b611cfd565b6000826103e887610a1f919061244b565b610a299190612276565b9050610a3f6785c106fb572b362160c01b611cfd565b8082610a4b91906124bc565b93505050509392505050565b600080610a6e67452d496a849c444b60c01b611cfd565b610a8267a1260debcaa4980260c01b611cfd565b610a96678927c4ee8b411a6960c01b611cfd565b600054600154915091509091565b7f000000000000000000000000000000000000000000000000000000000000000081565b60025481565b60015481565b7f000000000000000000000000000000000000000000000000000000000000000081565b6000610b0e675f57d30bfd4895d660c01b611cfd565b610b2267966f8e2110209e7860c01b611cfd565b610b366749a685362020e17160c01b611cfd565b610b4a6774d000d77446428d60c01b611cfd565b6000805411610b8e576040517f08c379a0000000000000000000000000000000000000000000000000000000008152600401610b8590612539565b60405180910390fd5b610ba267f3a4cccc5cdeeb0e60c01b611cfd565b610bb667dd7d7b4fee5e8a2460c01b611cfd565b610bca6767b1553ea830595960c01b611cfd565b600054670de0b6b3a7640000600154610be3919061244b565b610bed91906124bc565b905090565b600080610c0967450e19efc4d7686160c01b611cfd565b610c1d67b9321a3c512c60f560c01b611cfd565b610c3167efe348eb2eee6de460c01b611cfd565b610c456716322f469713450e60c01b611cfd565b82600360003373ffffffffffffffffffffffffffffffffffffffff1673ffffffffffffffffffffffffffffffffffffffff168152602001908152602001600020541015610cc7576040517f08c379a0000000000000000000000000000000000000000000000000000000008152600401610cbe906125a5565b60405180910390fd5b610cdb67e2ea5a187084f88360c01b611cfd565b610cef671065aefffecf03f160c01b611cfd565b610d036709c5e3f141a5414060c01b611cfd565b610d1767c57c62822ce8735e60c01b611cfd565b60008311610d5a576040517f08c379a0000000000000000000000000000000000000000000000000000000008152600401610d5190612611565b60405180910390fd5b610d6e6768e0dcaf2209bd3260c01b611cfd565b610d82675211de116b8ace3060c01b611cfd565b610d966736e434ec7e1080ac60c01b611cfd565b610daa67383ea8b3463c53d760c01b611cfd565b600060025411610def576040517f08c379a0000000000000000000000000000000000000000000000000000000008152600401610de69061267d565b60405180910390fd5b610e036723de50e2367edc8b60c01b611cfd565b610e17679d49e572bbf8f74060c01b611cfd565b60025460005484610e28919061244b565b610e3291906124bc565b9150610e4867c08488370c4c61d460c01b611cfd565b60025460015484610e59919061244b565b610e6391906124bc565b9050610e79674ef366d251689b0560c01b611cfd565b610e8d67e4725307c122627860c01b611cfd565b610ea1674e198db302260c7560c01b611cfd565b600082118015610eb15750600081115b610ef0576040517f08c379a0000000000000000000000000000000000000000000000000000000008152600401610ee7906126e9565b60405180910390fd5b610f0467330e18e8489c545e60c01b611cfd565b610f186762b9d595eb09f23260c01b611cfd565b82600360003373ffffffffffffffffffffffffffffffffffffffff1673ffffffffffffffffffffffffffffffffffffffff1681526020019081526020016000206000828254610f679190612316565b92505081905550610f82674a346fab76c7ac1f60c01b611cfd565b8260026000828254610f949190612316565b92505081905550610faf67520e24a6206ce8ba60c01b611cfd565b81600080828254610fc09190612316565b92505081905550610fdb67267ef47893cb107460c01b611cfd565b8060016000828254610fed9190612316565b9250508190555061100867ce7e4cbb247f5d3560c01b611cfd565b61101c6747fd82eea3e8e2bc60c01b611cfd565b7f000000000000000000000000000000000000000000000000000000000000000073ffffffffffffffffffffffffffffffffffffffff1663a9059cbb33846040518363ffffffff1660e01b815260040161107792919061234a565b6020604051808303816000875af1158015611096573d6000803e3d6000fd5b505050506040513d601f19601f820116820180604052508101906110ba919061221a565b506110cf677725df995bb2140d60c01b611cfd565b6110e367b60df91049f9d98460c01b611cfd565b7f000000000000000000000000000000000000000000000000000000000000000073ffffffffffffffffffffffffffffffffffffffff1663a9059cbb33836040518363ffffffff1660e01b815260040161113e92919061234a565b6020604051808303816000875af115801561115d573d6000803e3d6000fd5b505050506040513d601f19601f82011682018060405250810190611181919061221a565b50611196678a2fea300585ddaf60c01b611cfd565b6111aa67797680eab0d2935a60c01b611cfd565b3373ffffffffffffffffffffffffffffffffffffffff167f1dc8bb69df2b8e91fbdcbfcf93d951b3f0000f085a95fe3f7946d6161439245d8383866040516111f493929190612709565b60405180910390a26112106785fd3f9c7afcf98260c01b611cfd565b61122467504e9a73d6f1612260c01b611cfd565b915091565b600061123f673c5860fa8afe64e560c01b611cfd565b61125367f2f39dcea43164eb60c01b611cfd565b61126767655ed991e7bc5c6560c01b611cfd565b61127b674f727806d0db878160c01b611cfd565b60008311801561128b5750600082115b6112ca576040517f08c379a00000000000000000000000000000000000000000000000000000000081526004016112c19061278c565b60405180910390fd5b6112de676dee359acdee9a3360c01b611cfd565b6112f26759dd22970e3816bf60c01b611cfd565b61130667e002ff20a6a6336e60c01b611cfd565b7f000000000000000000000000000000000000000000000000000000000000000073ffffffffffffffffffffffffffffffffffffffff166323b872dd3330866040518463ffffffff1660e01b8152600401611363939291906121ab565b6020604051808303816000875af1158015611382573d6000803e3d6000fd5b505050506040513d601f19601f820116820180604052508101906113a6919061221a565b506113bb67c86edf3c6ddf587a60c01b611cfd565b6113cf67acf083b0d53037e860c01b611cfd565b7f000000000000000000000000000000000000000000000000000000000000000073ffffffffffffffffffffffffffffffffffffffff166323b872dd3330856040518463ffffffff1660e01b815260040161142c939291906121ab565b6020604051808303816000875af115801561144b573d6000803e3d6000fd5b505050506040513d601f19601f8201168201806040525081019061146f919061221a565b5061148467c01554a269413c0b60c01b611cfd565b61149867e0f7205187ac61fb60c01b611cfd565b600060025403611500576114b6671d271fdb7970990360c01b611cfd565b6114ca678207c6f3e81db7ac60c01b611cfd565b6114de82846114d9919061244b565b611d00565b90506114f467d7784d42548e065d60c01b611cfd565b8060028190555061161f565b61151467e01e96d4457fee4c60c01b611cfd565b6115286759b30038df40b59160c01b611cfd565b61153c672e1ed9802fac7e9160c01b611cfd565b600080546001548561154e919061244b565b61155891906124bc565b905061156e67f83bbd7ed903da6560c01b611cfd565b61158267fd104ab9c68e668460c01b611cfd565b61159667d967b94603ba042260c01b611cfd565b8281146115d8576040517f08c379a00000000000000000000000000000000000000000000000000000000081526004016115cf906127f8565b60405180910390fd5b6115ec67401c6d54fce7a7cf60c01b611cfd565b6116006736842e1d6a5f70be60c01b611cfd565b60005460025485611611919061244b565b61161b91906124bc565b9150505b611633678e6fafc1a487096760c01b611cfd565b80600360003373ffffffffffffffffffffffffffffffffffffffff1673ffffffffffffffffffffffffffffffffffffffff16815260200190815260200160002060008282546116829190612276565b9250508190555061169d6717d6e1c00d70a89360c01b611cfd565b826000808282546116ae9190612276565b925050819055506116c967735b99c85f381aa760c01b611cfd565b81600160008282546116db9190612276565b925050819055506116f66764aae7211ab6c09260c01b611cfd565b61170a67601e86057923728c60c01b611cfd565b3373ffffffffffffffffffffffffffffffffffffffff167f64b83944e79c3ce8d4c297411de637c3e102d064677aac0c163976ebdcd6f50e84848460405161175493929190612709565b60405180910390a2611770676f19f44f64dac67060c01b611cfd565b61178467b3b07e3689e90f9760c01b611cfd565b92915050565b60036020528060005260406000206000915090505481565b60005481565b60006117be672f8bf35e258bf1e360c01b611cfd565b6117d2676812d3aa5912318e60c01b611cfd565b6117e6670205ed9868928db060c01b611cfd565b6117fa6706cb56ce6eff387560c01b611cfd565b6000821161183d576040517f08c379a00000000000000000000000000000000000000000000000000000000081526004016118349061211f565b60405180910390fd5b61185167348fcccdf5e31bef60c01b611cfd565b611865678a5f0c37b2a3fa8f60c01b611cfd565b61187967bf9ca274f8c160d760c01b611cfd565b6000600154905061189467cb98078c699b9fd960c01b611cfd565b6118a86760c50211bf1342cd60c01b611cfd565b6000805490506118c26763c7be7e21d9ff7660c01b611cfd565b6118d667a3f6e91905fb296460c01b611cfd565b6118ea6709f93a27085099c460c01b611cfd565b6000821180156118fa5750600081115b611939576040517f08c379a00000000000000000000000000000000000000000000000000000000081526004016119309061218b565b60405180910390fd5b61194d6753e2d0e5fe1e287160c01b611cfd565b61196167b517114da1462b2560c01b611cfd565b611975671afbb9b317ee1fe660c01b611cfd565b7f000000000000000000000000000000000000000000000000000000000000000073ffffffffffffffffffffffffffffffffffffffff166323b872dd3330876040518463ffffffff1660e01b81526004016119d2939291906121ab565b6020604051808303816000875af11580156119f1573d6000803e3d6000fd5b505050506040513d601f19601f82011682018060405250810190611a15919061221a565b50611a2a675fd550124c3083fe60c01b611cfd565b8360016000828254611a3c9190612276565b92505081905550611a5666e86e4fa9e06be660c01b611cfd565b611a6184838361081f565b9250611a77674a452febc99fab6e60c01b611cfd565b611a8b6762581e5f9f445eca60c01b611cfd565b611a9e66f17dc7de4d653b60c01b611cfd565b60008311611ae1576040517f08c379a0000000000000000000000000000000000000000000000000000000008152600401611ad8906122f6565b60405180910390fd5b611af567608a9ba0d05a36a360c01b611cfd565b611b0967cf504e9267127e1960c01b611cfd565b82600080828254611b1a9190612316565b92505081905550611b3567fd00cde3cefd1f9460c01b611cfd565b611b496711a9983ed81fb39860c01b611cfd565b7f000000000000000000000000000000000000000000000000000000000000000073ffffffffffffffffffffffffffffffffffffffff1663a9059cbb33856040518363ffffffff1660e01b8152600401611ba492919061234a565b6020604051808303816000875af1158015611bc3573d6000803e3d6000fd5b505050506040513d601f19601f82011682018060405250810190611be7919061221a565b50611bfc67e012944b18ca8d0660c01b611cfd565b611c106747020d1180844a5860c01b611cfd565b7f000000000000000000000000000000000000000000000000000000000000000073ffffffffffffffffffffffffffffffffffffffff167f000000000000000000000000000000000000000000000000000000000000000073ffffffffffffffffffffffffffffffffffffffff163373ffffffffffffffffffffffffffffffffffffffff167fcd3829a3813dc3cdd188fd3d01dcf3268c16be2fdd2dd21d0665418816e460628787604051611cc6929190611fa4565b60405180910390a4611ce267a289f6d1e1ef9b1860c01b611cfd565b611cf667f72132c81f838c8560c01b611cfd565b5050919050565b50565b6000611d1667fd751de5660b754f60c01b611cfd565b611d2a67bce905d3d986821560c01b611cfd565b611d3e67b76741278ae68e7060c01b611cfd565b6003821115611e4357611d5b671f93820476d3f89f60c01b611cfd565b611d6f674793231edad212cf60c01b611cfd565b819050611d8667df48d36dc46a60cb60c01b611cfd565b611d9a67b5751d211458857960c01b611cfd565b60006001600284611dab91906124bc565b611db59190612276565b9050611dcb67f376a1034a52fb7e60c01b611cfd565b611ddf678e500d896e06961460c01b611cfd565b5b81811015611e3d57611dfc67c6e2be7ade49c94b60c01b611cfd565b809150611e13677945b785d72a1cfa60c01b611cfd565b6002818285611e2291906124bc565b611e2c9190612276565b611e3691906124bc565b9050611de0565b50611eba565b611e5767fb80f74426cd0fe460c01b611cfd565b611e6b67bd0b12833157d97160c01b611cfd565b60008214611ea457611e87675ebc1e36145d74b660c01b611cfd565b611e9b6729b934b83460bb9f60c01b611cfd565b60019050611eb9565b611eb8671bd436b9dabeb2e060c01b611cfd565b5b5b919050565b600080fd5b6000819050919050565b611ed781611ec4565b8114611ee257600080fd5b50565b600081359050611ef481611ece565b92915050565b600060208284031215611f1057611f0f611ebf565b5b6000611f1e84828501611ee5565b91505092915050565b611f3081611ec4565b82525050565b6000602082019050611f4b6000830184611f27565b92915050565b600080600060608486031215611f6a57611f69611ebf565b5b6000611f7886828701611ee5565b9350506020611f8986828701611ee5565b9250506040611f9a86828701611ee5565b9150509250925092565b6000604082019050611fb96000830185611f27565b611fc66020830184611f27565b9392505050565b600073ffffffffffffffffffffffffffffffffffffffff82169050919050565b6000611ff882611fcd565b9050919050565b61200881611fed565b82525050565b60006020820190506120236000830184611fff565b92915050565b600080604083850312156120405761203f611ebf565b5b600061204e85828601611ee5565b925050602061205f85828601611ee5565b9150509250929050565b61207281611fed565b811461207d57600080fd5b50565b60008135905061208f81612069565b92915050565b6000602082840312156120ab576120aa611ebf565b5b60006120b984828501612080565b91505092915050565b600082825260208201905092915050565b7f43616e6e6f742073776170207a65726f20616d6f756e74000000000000000000600082015250565b60006121096017836120c2565b9150612114826120d3565b602082019050919050565b60006020820190508181036000830152612138816120fc565b9050919050565b7f506f6f6c206e6f7420696e697469616c697a6564000000000000000000000000600082015250565b60006121756014836120c2565b91506121808261213f565b602082019050919050565b600060208201905081810360008301526121a481612168565b9050919050565b60006060820190506121c06000830186611fff565b6121cd6020830185611fff565b6121da6040830184611f27565b949350505050565b60008115159050919050565b6121f7816121e2565b811461220257600080fd5b50565b600081519050612214816121ee565b92915050565b6000602082840312156122305761222f611ebf565b5b600061223e84828501612205565b91505092915050565b7f4e487b7100000000000000000000000000000000000000000000000000000000600052601160045260246000fd5b600061228182611ec4565b915061228c83611ec4565b92508282019050808211156122a4576122a3612247565b5b92915050565b7f496e73756666696369656e74206f757470757420616d6f756e74000000000000600082015250565b60006122e0601a836120c2565b91506122eb826122aa565b602082019050919050565b6000602082019050818103600083015261230f816122d3565b9050919050565b600061232182611ec4565b915061232c83611ec4565b925082820390508181111561234457612343612247565b5b92915050565b600060408201905061235f6000830185611fff565b61236c6020830184611f27565b9392505050565b7f496e70757420616d6f756e74206d757374206265203e20300000000000000000600082015250565b60006123a96018836120c2565b91506123b482612373565b602082019050919050565b600060208201905081810360008301526123d88161239c565b9050919050565b7f5265736572766573206d757374206265203e2030000000000000000000000000600082015250565b60006124156014836120c2565b9150612420826123df565b602082019050919050565b6000602082019050818103600083015261244481612408565b9050919050565b600061245682611ec4565b915061246183611ec4565b925082820261246f81611ec4565b9150828204841483151761248657612485612247565b5b5092915050565b7f4e487b7100000000000000000000000000000000000000000000000000000000600052601260045260246000fd5b60006124c782611ec4565b91506124d283611ec4565b9250826124e2576124e161248d565b5b828204905092915050565b7f526573657276652041206973207a65726f000000000000000000000000000000600082015250565b60006125236011836120c2565b915061252e826124ed565b602082019050919050565b6000602082019050818103600083015261255281612516565b9050919050565b7f496e73756666696369656e74206c697175696469747900000000000000000000600082015250565b600061258f6016836120c2565b915061259a82612559565b602082019050919050565b600060208201905081810360008301526125be81612582565b9050919050565b7f43616e6e6f742072656d6f7665207a65726f206c697175696469747900000000600082015250565b60006125fb601c836120c2565b9150612606826125c5565b602082019050919050565b6000602082019050818103600083015261262a816125ee565b9050919050565b7f4e6f206c697175696469747920696e20706f6f6c000000000000000000000000600082015250565b60006126676014836120c2565b915061267282612631565b602082019050919050565b600060208201905081810360008301526126968161265a565b9050919050565b7f576974686472617720616d6f756e747320746f6f20736d616c6c000000000000600082015250565b60006126d3601a836120c2565b91506126de8261269d565b602082019050919050565b60006020820190508181036000830152612702816126c6565b9050919050565b600060608201905061271e6000830186611f27565b61272b6020830185611f27565b6127386040830184611f27565b949350505050565b7f43616e6e6f7420616464207a65726f206c697175696469747900000000000000600082015250565b60006127766019836120c2565b915061278182612740565b602082019050919050565b600060208201905081810360008301526127a581612769565b9050919050565b7f4d757374206d6174636820706f6f6c20726174696f0000000000000000000000600082015250565b60006127e26015836120c2565b91506127ed826127ac565b602082019050919050565b60006020820190508181036000830152612811816127d5565b905091905056fea2646970667358221220c77523a4c04d87da93047d60a93a710bcd6bd257d920dd49e3ffc2daded57ed264736f6c63430008130033",
  "linkReferences": {},
  "deployedLinkReferences": {}
}